{
  "address": "0xf8d19a51BF08E64D48112CBe4618594118ed4841",
  "abi": [
    {
      "inputs": [
        {
          "internalType": "string",
          "name": "merchantName",
          "type": "string"
        }
      ],
      "stateMutability": "nonpayable",
      "type": "constructor"
    },
    {
      "anonymous": false,
      "inputs": [
        {
          "indexed": true,
          "internalType": "address",
          "name": "previousOwner",
          "type": "address"
        },
        {
          "indexed": true,
          "internalType": "address",
          "name": "newOwner",
          "type": "address"
        }
      ],
      "name": "OwnershipTransferred",
      "type": "event"
    },
    {
      "anonymous": false,
      "inputs": [
        {
          "components": [
            {
              "internalType": "uint256",
              "name": "orderID",
              "type": "uint256"
            },
            {
              "internalType": "uint256",
              "name": "productID",
              "type": "uint256"
            },
            {
              "internalType": "address",
              "name": "customerAddress",
              "type": "address"
            },
            {
              "internalType": "address",
              "name": "merchantAddress",
              "type": "address"
            },
            {
              "internalType": "uint256",
              "name": "orderAmount",
              "type": "uint256"
            },
            {
              "internalType": "uint256",
              "name": "expiryDate",
              "type": "uint256"
            },
            {
              "internalType": "string",
              "name": "orderStatus",
              "type": "string"
            }
          ],
          "indexed": false,
          "internalType": "struct QuboMerchant.OrderDetails",
          "name": "_detail",
          "type": "tuple"
        }
      ],
      "name": "orderSigned",
      "type": "event"
    },
    {
      "anonymous": false,
      "inputs": [
        {
          "components": [
            {
              "internalType": "uint256",
              "name": "orderID",
              "type": "uint256"
            },
            {
              "internalType": "uint256",
              "name": "productID",
              "type": "uint256"
            },
            {
              "internalType": "address",
              "name": "customerAddress",
              "type": "address"
            },
            {
              "internalType": "address",
              "name": "merchantAddress",
              "type": "address"
            },
            {
              "internalType": "uint256",
              "name": "orderAmount",
              "type": "uint256"
            },
            {
              "internalType": "uint256",
              "name": "expiryDate",
              "type": "uint256"
            },
            {
              "internalType": "string",
              "name": "orderStatus",
              "type": "string"
            }
          ],
          "indexed": false,
          "internalType": "struct QuboMerchant.OrderDetails",
          "name": "_detail",
          "type": "tuple"
        }
      ],
      "name": "purchaseRegistered",
      "type": "event"
    },
    {
      "inputs": [],
      "name": "_merchantName",
      "outputs": [
        {
          "internalType": "string",
          "name": "",
          "type": "string"
        }
      ],
      "stateMutability": "view",
      "type": "function"
    },
    {
      "inputs": [
        {
          "internalType": "uint256",
          "name": "payableAmount",
          "type": "uint256"
        },
        {
          "internalType": "uint256",
          "name": "productID",
          "type": "uint256"
        }
      ],
      "name": "addPurchase",
      "outputs": [],
      "stateMutability": "payable",
      "type": "function"
    },
    {
      "inputs": [],
      "name": "balanceOf",
      "outputs": [
        {
          "internalType": "uint256",
          "name": "",
          "type": "uint256"
        }
      ],
      "stateMutability": "view",
      "type": "function"
    },
    {
      "inputs": [
        {
          "internalType": "uint256",
          "name": "",
          "type": "uint256"
        }
      ],
      "name": "orderList",
      "outputs": [
        {
          "internalType": "uint256",
          "name": "orderID",
          "type": "uint256"
        },
        {
          "internalType": "uint256",
          "name": "productID",
          "type": "uint256"
        },
        {
          "internalType": "address",
          "name": "customerAddress",
          "type": "address"
        },
        {
          "internalType": "address",
          "name": "merchantAddress",
          "type": "address"
        },
        {
          "internalType": "uint256",
          "name": "orderAmount",
          "type": "uint256"
        },
        {
          "internalType": "uint256",
          "name": "expiryDate",
          "type": "uint256"
        },
        {
          "internalType": "string",
          "name": "orderStatus",
          "type": "string"
        }
      ],
      "stateMutability": "view",
      "type": "function"
    },
    {
      "inputs": [],
      "name": "owner",
      "outputs": [
        {
          "internalType": "address",
          "name": "",
          "type": "address"
        }
      ],
      "stateMutability": "view",
      "type": "function"
    },
    {
      "inputs": [
        {
          "internalType": "address",
          "name": "destination",
          "type": "address"
        },
        {
          "internalType": "uint256",
          "name": "payableAmount",
          "type": "uint256"
        }
      ],
      "name": "payout",
      "outputs": [],
      "stateMutability": "nonpayable",
      "type": "function"
    },
    {
      "inputs": [
        {
          "internalType": "uint256",
          "name": "orderID",
          "type": "uint256"
        }
      ],
      "name": "refund",
      "outputs": [
        {
          "components": [
            {
              "internalType": "uint256",
              "name": "orderID",
              "type": "uint256"
            },
            {
              "internalType": "uint256",
              "name": "productID",
              "type": "uint256"
            },
            {
              "internalType": "address",
              "name": "customerAddress",
              "type": "address"
            },
            {
              "internalType": "address",
              "name": "merchantAddress",
              "type": "address"
            },
            {
              "internalType": "uint256",
              "name": "orderAmount",
              "type": "uint256"
            },
            {
              "internalType": "uint256",
              "name": "expiryDate",
              "type": "uint256"
            },
            {
              "internalType": "string",
              "name": "orderStatus",
              "type": "string"
            }
          ],
          "internalType": "struct QuboMerchant.OrderDetails",
          "name": "",
          "type": "tuple"
        }
      ],
      "stateMutability": "nonpayable",
      "type": "function"
    },
    {
      "inputs": [
        {
          "internalType": "uint256",
          "name": "orderID",
          "type": "uint256"
        }
      ],
      "name": "release",
      "outputs": [
        {
          "components": [
            {
              "internalType": "uint256",
              "name": "orderID",
              "type": "uint256"
            },
            {
              "internalType": "uint256",
              "name": "productID",
              "type": "uint256"
            },
            {
              "internalType": "address",
              "name": "customerAddress",
              "type": "address"
            },
            {
              "internalType": "address",
              "name": "merchantAddress",
              "type": "address"
            },
            {
              "internalType": "uint256",
              "name": "orderAmount",
              "type": "uint256"
            },
            {
              "internalType": "uint256",
              "name": "expiryDate",
              "type": "uint256"
            },
            {
              "internalType": "string",
              "name": "orderStatus",
              "type": "string"
            }
          ],
          "internalType": "struct QuboMerchant.OrderDetails",
          "name": "",
          "type": "tuple"
        }
      ],
      "stateMutability": "nonpayable",
      "type": "function"
    },
    {
      "inputs": [],
      "name": "renounceOwnership",
      "outputs": [],
      "stateMutability": "nonpayable",
      "type": "function"
    },
    {
      "inputs": [
        {
          "internalType": "uint256",
          "name": "orderID",
          "type": "uint256"
        },
        {
          "internalType": "bytes32",
          "name": "ordersHash",
          "type": "bytes32"
        }
      ],
      "name": "sign",
      "outputs": [],
      "stateMutability": "nonpayable",
      "type": "function"
    },
    {
      "inputs": [
        {
          "internalType": "address",
          "name": "newOwner",
          "type": "address"
        }
      ],
      "name": "transferOwnership",
      "outputs": [],
      "stateMutability": "nonpayable",
      "type": "function"
    },
    {
      "inputs": [],
      "name": "withdraw",
      "outputs": [],
      "stateMutability": "nonpayable",
      "type": "function"
    }
  ],
  "transactionHash": "0xc9b24fff8a59c2b06e4f13633a76b089b93ca752f63206d562edfa218b115043",
  "args": [
    "adfadfadfasdf"
  ],
  "numDeployments": 16,
  "solcInputHash": "5674600b3d3ea9cdc5cacd62fd9e63f5",
  "bytecode": "0x608060405273f194afdf50b03e69bd7d057c1aa9e10c9954e4c9600260006101000a81548173ffffffffffffffffffffffffffffffffffffffff021916908373ffffffffffffffffffffffffffffffffffffffff1602179055506000600260146101000a81548160ff0219169083151502179055506000600260156101000a81548160ff0219169083151502179055506000600455348015620000a157600080fd5b506040516200218f3803806200218f8339818101604052810190620000c79190620002fc565b620000e7620000db6200010e60201b60201c565b6200011660201b60201c565b60018081905550806003908051906020019062000106929190620001da565b5050620004b1565b600033905090565b60008060009054906101000a900473ffffffffffffffffffffffffffffffffffffffff169050816000806101000a81548173ffffffffffffffffffffffffffffffffffffffff021916908373ffffffffffffffffffffffffffffffffffffffff1602179055508173ffffffffffffffffffffffffffffffffffffffff168173ffffffffffffffffffffffffffffffffffffffff167f8be0079c531659141344cd1fd0a4f28419497f9722a3daafe3b4186f6b6457e060405160405180910390a35050565b828054620001e890620003d6565b90600052602060002090601f0160209004810192826200020c576000855562000258565b82601f106200022757805160ff191683800117855562000258565b8280016001018555821562000258579182015b82811115620002575782518255916020019190600101906200023a565b5b5090506200026791906200026b565b5090565b5b80821115620002865760008160009055506001016200026c565b5090565b6000620002a16200029b846200036a565b62000341565b905082815260208101848484011115620002ba57600080fd5b620002c7848285620003a0565b509392505050565b600082601f830112620002e157600080fd5b8151620002f38482602086016200028a565b91505092915050565b6000602082840312156200030f57600080fd5b600082015167ffffffffffffffff8111156200032a57600080fd5b6200033884828501620002cf565b91505092915050565b60006200034d62000360565b90506200035b82826200040c565b919050565b6000604051905090565b600067ffffffffffffffff82111562000388576200038762000471565b5b6200039382620004a0565b9050602081019050919050565b60005b83811015620003c0578082015181840152602081019050620003a3565b83811115620003d0576000848401525b50505050565b60006002820490506001821680620003ef57607f821691505b6020821081141562000406576200040562000442565b5b50919050565b6200041782620004a0565b810181811067ffffffffffffffff8211171562000439576200043862000471565b5b80604052505050565b7f4e487b7100000000000000000000000000000000000000000000000000000000600052602260045260246000fd5b7f4e487b7100000000000000000000000000000000000000000000000000000000600052604160045260246000fd5b6000601f19601f8301169050919050565b611cce80620004c16000396000f3fe6080604052600436106100a75760003560e01c806376f75e7f1161006457806376f75e7f146101a85780638da5cb5b146101eb578063bda4df4814610216578063e341eaa414610232578063f2fde38b1461025b578063fd3c430314610284576100a7565b8063117de2fd146100ac578063278ecde1146100d557806337bdc99b146101125780633ccfd60b1461014f578063715018a614610166578063722713f71461017d575b600080fd5b3480156100b857600080fd5b506100d360048036038101906100ce91906110c7565b6102af565b005b3480156100e157600080fd5b506100fc60048036038101906100f7919061112c565b610365565b604051610109919061178d565b60405180910390f35b34801561011e57600080fd5b506101396004803603810190610134919061112c565b610372565b604051610146919061178d565b60405180910390f35b34801561015b57600080fd5b50610164610505565b005b34801561017257600080fd5b5061017b610685565b005b34801561018957600080fd5b5061019261070d565b60405161019f91906117d1565b60405180910390f35b3480156101b457600080fd5b506101cf60048036038101906101ca919061112c565b610715565b6040516101e297969594939291906117ec565b60405180910390f35b3480156101f757600080fd5b5061020061081f565b60405161020d9190611639565b60405180910390f35b610230600480360381019061022b9190611191565b610848565b005b34801561023e57600080fd5b5061025960048036038101906102549190611155565b610ac6565b005b34801561026757600080fd5b50610282600480360381019061027d919061109e565b610cec565b005b34801561029057600080fd5b50610299610de4565b6040516102a6919061168b565b60405180910390f35b600260009054906101000a900473ffffffffffffffffffffffffffffffffffffffff1673ffffffffffffffffffffffffffffffffffffffff166323b872dd3084846040518463ffffffff1660e01b815260040161030e93929190611654565b602060405180830381600087803b15801561032857600080fd5b505af115801561033c573d6000803e3d6000fd5b505050506040513d601f19601f820116820180604052508101906103609190611103565b505050565b61036d610f3e565b919050565b61037a610f3e565b600560008381526020019081526020016000206040518060e001604052908160008201548152602001600182015481526020016002820160009054906101000a900473ffffffffffffffffffffffffffffffffffffffff1673ffffffffffffffffffffffffffffffffffffffff1673ffffffffffffffffffffffffffffffffffffffff1681526020016003820160009054906101000a900473ffffffffffffffffffffffffffffffffffffffff1673ffffffffffffffffffffffffffffffffffffffff1673ffffffffffffffffffffffffffffffffffffffff168152602001600482015481526020016005820154815260200160068201805461047c906119c9565b80601f01602080910402602001604051908101604052809291908181526020018280546104a8906119c9565b80156104f55780601f106104ca576101008083540402835291602001916104f5565b820191906000526020600020905b8154815290600101906020018083116104d857829003601f168201915b5050505050815250509050919050565b61050d610e72565b73ffffffffffffffffffffffffffffffffffffffff1661052b61081f565b73ffffffffffffffffffffffffffffffffffffffff1614610581576040517f08c379a00000000000000000000000000000000000000000000000000000000081526004016105789061174d565b60405180910390fd5b600260015414156105c7576040517f08c379a00000000000000000000000000000000000000000000000000000000081526004016105be9061176d565b60405180910390fd5b600260018190555060003373ffffffffffffffffffffffffffffffffffffffff16476040516105f590611624565b60006040518083038185875af1925050503d8060008114610632576040519150601f19603f3d011682016040523d82523d6000602084013e610637565b606091505b505090508061067b576040517f08c379a0000000000000000000000000000000000000000000000000000000008152600401610672906116ed565b60405180910390fd5b5060018081905550565b61068d610e72565b73ffffffffffffffffffffffffffffffffffffffff166106ab61081f565b73ffffffffffffffffffffffffffffffffffffffff1614610701576040517f08c379a00000000000000000000000000000000000000000000000000000000081526004016106f89061174d565b60405180910390fd5b61070b6000610e7a565b565b600047905090565b60056020528060005260406000206000915090508060000154908060010154908060020160009054906101000a900473ffffffffffffffffffffffffffffffffffffffff16908060030160009054906101000a900473ffffffffffffffffffffffffffffffffffffffff169080600401549080600501549080600601805461079c906119c9565b80601f01602080910402602001604051908101604052809291908181526020018280546107c8906119c9565b80156108155780601f106107ea57610100808354040283529160200191610815565b820191906000526020600020905b8154815290600101906020018083116107f857829003601f168201915b5050505050905087565b60008060009054906101000a900473ffffffffffffffffffffffffffffffffffffffff16905090565b6002600154141561088e576040517f08c379a00000000000000000000000000000000000000000000000000000000081526004016108859061176d565b60405180910390fd5b60026001819055508134146108d8576040517f08c379a00000000000000000000000000000000000000000000000000000000081526004016108cf906116ad565b60405180910390fd5b60006040518060e0016040528060016004546108f491906118c4565b81526020018381526020013373ffffffffffffffffffffffffffffffffffffffff1681526020013073ffffffffffffffffffffffffffffffffffffffff168152602001848152602001600181526020016040518060400160405280600681526020017f416374697665000000000000000000000000000000000000000000000000000081525081525090506004600081548092919061099290611a2f565b919050555080600560006004548152602001908152602001600020600082015181600001556020820151816001015560408201518160020160006101000a81548173ffffffffffffffffffffffffffffffffffffffff021916908373ffffffffffffffffffffffffffffffffffffffff16021790555060608201518160030160006101000a81548173ffffffffffffffffffffffffffffffffffffffff021916908373ffffffffffffffffffffffffffffffffffffffff1602179055506080820151816004015560a0820151816005015560c0820151816006019080519060200190610a7f929190610fa7565b509050507fd8e151b466f332dfacc12e5b6c0fb4e1cc13dcc349ed22057a8242cb9441b6be81604051610ab2919061178d565b60405180910390a150600180819055505050565b6040518060400160405280600681526020017f436c6f73656400000000000000000000000000000000000000000000000000008152508051906020012060056000848152602001908152602001600020600601604051610b26919061160d565b60405180910390201415610b6f576040517f08c379a0000000000000000000000000000000000000000000000000000000008152600401610b669061172d565b60405180910390fd5b60056000838152602001908152602001600020604051602001610b9291906117af565b604051602081830303815290604052805190602001208114610be9576040517f08c379a0000000000000000000000000000000000000000000000000000000008152600401610be09061170d565b60405180910390fd5b6040518060400160405280600681526020017f436c6f7365640000000000000000000000000000000000000000000000000000815250600560008481526020019081526020016000206006019080519060200190610c48929190610fa7565b50610c9f6005600084815260200190815260200160002060020160009054906101000a900473ffffffffffffffffffffffffffffffffffffffff1660056000858152602001908152602001600020600401546102af565b7f59a9faf8997cb9da54e858310edf70eb85340f73c01c2ee63cd79b1b5d321ca960056000848152602001908152602001600020604051610ce091906117af565b60405180910390a15050565b610cf4610e72565b73ffffffffffffffffffffffffffffffffffffffff16610d1261081f565b73ffffffffffffffffffffffffffffffffffffffff1614610d68576040517f08c379a0000000000000000000000000000000000000000000000000000000008152600401610d5f9061174d565b60405180910390fd5b600073ffffffffffffffffffffffffffffffffffffffff168173ffffffffffffffffffffffffffffffffffffffff161415610dd8576040517f08c379a0000000000000000000000000000000000000000000000000000000008152600401610dcf906116cd565b60405180910390fd5b610de181610e7a565b50565b60038054610df1906119c9565b80601f0160208091040260200160405190810160405280929190818152602001828054610e1d906119c9565b8015610e6a5780601f10610e3f57610100808354040283529160200191610e6a565b820191906000526020600020905b815481529060010190602001808311610e4d57829003601f168201915b505050505081565b600033905090565b60008060009054906101000a900473ffffffffffffffffffffffffffffffffffffffff169050816000806101000a81548173ffffffffffffffffffffffffffffffffffffffff021916908373ffffffffffffffffffffffffffffffffffffffff1602179055508173ffffffffffffffffffffffffffffffffffffffff168173ffffffffffffffffffffffffffffffffffffffff167f8be0079c531659141344cd1fd0a4f28419497f9722a3daafe3b4186f6b6457e060405160405180910390a35050565b6040518060e001604052806000815260200160008152602001600073ffffffffffffffffffffffffffffffffffffffff168152602001600073ffffffffffffffffffffffffffffffffffffffff1681526020016000815260200160008152602001606081525090565b828054610fb3906119c9565b90600052602060002090601f016020900481019282610fd5576000855561101c565b82601f10610fee57805160ff191683800117855561101c565b8280016001018555821561101c579182015b8281111561101b578251825591602001919060010190611000565b5b509050611029919061102d565b5090565b5b8082111561104657600081600090555060010161102e565b5090565b60008135905061105981611c3c565b92915050565b60008151905061106e81611c53565b92915050565b60008135905061108381611c6a565b92915050565b60008135905061109881611c81565b92915050565b6000602082840312156110b057600080fd5b60006110be8482850161104a565b91505092915050565b600080604083850312156110da57600080fd5b60006110e88582860161104a565b92505060206110f985828601611089565b9150509250929050565b60006020828403121561111557600080fd5b60006111238482850161105f565b91505092915050565b60006020828403121561113e57600080fd5b600061114c84828501611089565b91505092915050565b6000806040838503121561116857600080fd5b600061117685828601611089565b925050602061118785828601611074565b9150509250929050565b600080604083850312156111a457600080fd5b60006111b285828601611089565b92505060206111c385828601611089565b9150509250929050565b6111d681611944565b82525050565b6111e581611944565b82525050565b600081546111f8816119c9565b6112028186611897565b9450600182166000811461121d576001811461122e57611261565b60ff19831686528186019350611261565b61123785611862565b60005b838110156112595781548189015260018201915060208101905061123a565b838801955050505b50505092915050565b60006112758261188c565b61127f81856118a2565b935061128f818560208601611996565b61129881611ad6565b840191505092915050565b60006112ae8261188c565b6112b881856118b3565b93506112c8818560208601611996565b6112d181611ad6565b840191505092915050565b600081546112e9816119c9565b6112f381866118a2565b9450600182166000811461130e576001811461132057611353565b60ff1983168652602086019350611353565b61132985611877565b60005b8381101561134b5781548189015260018201915060208101905061132c565b808801955050505b50505092915050565b60006113696015836118b3565b915061137482611af4565b602082019050919050565b600061138c6026836118b3565b915061139782611b1d565b604082019050919050565b60006113af6010836118b3565b91506113ba82611b6c565b602082019050919050565b60006113d2601b836118b3565b91506113dd82611b95565b602082019050919050565b60006113f5601e836118b3565b915061140082611bbe565b602082019050919050565b60006114186020836118b3565b915061142382611be7565b602082019050919050565b600061143b600083611897565b915061144682611c10565b600082019050919050565b600061145e601f836118b3565b915061146982611c13565b602082019050919050565b600060e08301600083015161148c60008601826115ef565b50602083015161149f60208601826115ef565b5060408301516114b260408601826111cd565b5060608301516114c560608601826111cd565b5060808301516114d860808601826115ef565b5060a08301516114eb60a08601826115ef565b5060c083015184820360c0860152611503828261126a565b9150508091505092915050565b600060e08301600080840154905061152781611a15565b61153460008701826115ef565b506001840154905061154581611a15565b61155260208701826115ef565b5060028401549050611563816119fb565b61157060408701826111cd565b5060038401549050611581816119fb565b61158e60608701826111cd565b506004840154905061159f81611a15565b6115ac60808701826115ef565b50600584015490506115bd81611a15565b6115ca60a08701826115ef565b506006840185830360c08701526115e183826112dc565b925050819250505092915050565b6115f88161198c565b82525050565b6116078161198c565b82525050565b600061161982846111eb565b915081905092915050565b600061162f8261142e565b9150819050919050565b600060208201905061164e60008301846111dc565b92915050565b600060608201905061166960008301866111dc565b61167660208301856111dc565b61168360408301846115fe565b949350505050565b600060208201905081810360008301526116a581846112a3565b905092915050565b600060208201905081810360008301526116c68161135c565b9050919050565b600060208201905081810360008301526116e68161137f565b9050919050565b60006020820190508181036000830152611706816113a2565b9050919050565b60006020820190508181036000830152611726816113c5565b9050919050565b60006020820190508181036000830152611746816113e8565b9050919050565b600060208201905081810360008301526117668161140b565b9050919050565b6000602082019050818103600083015261178681611451565b9050919050565b600060208201905081810360008301526117a78184611474565b905092915050565b600060208201905081810360008301526117c98184611510565b905092915050565b60006020820190506117e660008301846115fe565b92915050565b600060e082019050611801600083018a6115fe565b61180e60208301896115fe565b61181b60408301886111dc565b61182860608301876111dc565b61183560808301866115fe565b61184260a08301856115fe565b81810360c083015261185481846112a3565b905098975050505050505050565b60008190508160005260206000209050919050565b60008190508160005260206000209050919050565b600081519050919050565b600081905092915050565b600082825260208201905092915050565b600082825260208201905092915050565b60006118cf8261198c565b91506118da8361198c565b9250827fffffffffffffffffffffffffffffffffffffffffffffffffffffffffffffffff0382111561190f5761190e611a78565b5b828201905092915050565b600073ffffffffffffffffffffffffffffffffffffffff82169050919050565b6000819050919050565b600061194f8261196c565b9050919050565b60008115159050919050565b6000819050919050565b600073ffffffffffffffffffffffffffffffffffffffff82169050919050565b6000819050919050565b60005b838110156119b4578082015181840152602081019050611999565b838111156119c3576000848401525b50505050565b600060028204905060018216806119e157607f821691505b602082108114156119f5576119f4611aa7565b5b50919050565b6000611a0e611a0983611ae7565b61191a565b9050919050565b6000611a28611a2383611ae7565b61193a565b9050919050565b6000611a3a8261198c565b91507fffffffffffffffffffffffffffffffffffffffffffffffffffffffffffffffff821415611a6d57611a6c611a78565b5b600182019050919050565b7f4e487b7100000000000000000000000000000000000000000000000000000000600052601160045260246000fd5b7f4e487b7100000000000000000000000000000000000000000000000000000000600052602260045260246000fd5b6000601f19601f8301169050919050565b60008160001c9050919050565b7f50617961626c65206973206e6f742076616c6964210000000000000000000000600082015250565b7f4f776e61626c653a206e6577206f776e657220697320746865207a65726f206160008201527f6464726573730000000000000000000000000000000000000000000000000000602082015250565b7f5769746864726177206661696c65642100000000000000000000000000000000600082015250565b7f4f726465722064657461696c732068617665206368616e676564210000000000600082015250565b7f437573746f6d65722068617320616c7265616479207265636569766564210000600082015250565b7f4f776e61626c653a2063616c6c6572206973206e6f7420746865206f776e6572600082015250565b50565b7f5265656e7472616e637947756172643a207265656e7472616e742063616c6c00600082015250565b611c4581611944565b8114611c5057600080fd5b50565b611c5c81611956565b8114611c6757600080fd5b50565b611c7381611962565b8114611c7e57600080fd5b50565b611c8a8161198c565b8114611c9557600080fd5b5056fea26469706673582212200e6c99de97967fde8e21a7f3fdda1d04e90db58fe3168ab770ec6056df42aad364736f6c63430008040033",
  "devdoc": {
    "kind": "dev",
    "methods": {
      "owner()": {
        "details": "Returns the address of the current owner."
      },
      "renounceOwnership()": {
        "details": "Leaves the contract without owner. It will not be possible to call `onlyOwner` functions anymore. Can only be called by the current owner. NOTE: Renouncing ownership will leave the contract without an owner, thereby removing any functionality that is only available to the owner."
      },
      "transferOwnership(address)": {
        "details": "Transfers ownership of the contract to a new account (`newOwner`). Can only be called by the current owner."
      }
    },
    "version": 1
  },
  "userdoc": {
    "kind": "user",
    "methods": {},
    "version": 1
  },
  "storageLayout": {
    "storage": [
      {
        "astId": 7,
        "contract": "contracts/QuboMerchant.sol:QuboMerchant",
        "label": "_owner",
        "offset": 0,
        "slot": "0",
        "type": "t_address"
      },
      {
        "astId": 115,
        "contract": "contracts/QuboMerchant.sol:QuboMerchant",
        "label": "_status",
        "offset": 0,
        "slot": "1",
        "type": "t_uint256"
      },
      {
        "astId": 869,
        "contract": "contracts/QuboMerchant.sol:QuboMerchant",
        "label": "_CELO",
        "offset": 0,
        "slot": "2",
        "type": "t_address"
      },
      {
        "astId": 872,
        "contract": "contracts/QuboMerchant.sol:QuboMerchant",
        "label": "_customerReceived",
        "offset": 20,
        "slot": "2",
        "type": "t_bool"
      },
      {
        "astId": 875,
        "contract": "contracts/QuboMerchant.sol:QuboMerchant",
        "label": "_merchantSent",
        "offset": 21,
        "slot": "2",
        "type": "t_bool"
      },
      {
        "astId": 877,
        "contract": "contracts/QuboMerchant.sol:QuboMerchant",
        "label": "_merchantName",
        "offset": 0,
        "slot": "3",
        "type": "t_string_storage"
      },
      {
        "astId": 880,
        "contract": "contracts/QuboMerchant.sol:QuboMerchant",
        "label": "orderCount",
        "offset": 0,
        "slot": "4",
        "type": "t_uint256"
      },
      {
        "astId": 910,
        "contract": "contracts/QuboMerchant.sol:QuboMerchant",
        "label": "orderList",
        "offset": 0,
        "slot": "5",
        "type": "t_mapping(t_uint256,t_struct(OrderDetails)905_storage)"
      }
    ],
    "types": {
      "t_address": {
        "encoding": "inplace",
        "label": "address",
        "numberOfBytes": "20"
      },
      "t_bool": {
        "encoding": "inplace",
        "label": "bool",
        "numberOfBytes": "1"
      },
      "t_mapping(t_uint256,t_struct(OrderDetails)905_storage)": {
        "encoding": "mapping",
        "key": "t_uint256",
        "label": "mapping(uint256 => struct QuboMerchant.OrderDetails)",
        "numberOfBytes": "32",
        "value": "t_struct(OrderDetails)905_storage"
      },
      "t_string_storage": {
        "encoding": "bytes",
        "label": "string",
        "numberOfBytes": "32"
      },
      "t_struct(OrderDetails)905_storage": {
        "encoding": "inplace",
        "label": "struct QuboMerchant.OrderDetails",
        "members": [
          {
            "astId": 892,
            "contract": "contracts/QuboMerchant.sol:QuboMerchant",
            "label": "orderID",
            "offset": 0,
            "slot": "0",
            "type": "t_uint256"
          },
          {
            "astId": 894,
            "contract": "contracts/QuboMerchant.sol:QuboMerchant",
            "label": "productID",
            "offset": 0,
            "slot": "1",
            "type": "t_uint256"
          },
          {
            "astId": 896,
            "contract": "contracts/QuboMerchant.sol:QuboMerchant",
            "label": "customerAddress",
            "offset": 0,
            "slot": "2",
            "type": "t_address"
          },
          {
            "astId": 898,
            "contract": "contracts/QuboMerchant.sol:QuboMerchant",
            "label": "merchantAddress",
            "offset": 0,
            "slot": "3",
            "type": "t_address"
          },
          {
            "astId": 900,
            "contract": "contracts/QuboMerchant.sol:QuboMerchant",
            "label": "orderAmount",
            "offset": 0,
            "slot": "4",
            "type": "t_uint256"
          },
          {
            "astId": 902,
            "contract": "contracts/QuboMerchant.sol:QuboMerchant",
            "label": "expiryDate",
            "offset": 0,
            "slot": "5",
            "type": "t_uint256"
          },
          {
            "astId": 904,
            "contract": "contracts/QuboMerchant.sol:QuboMerchant",
            "label": "orderStatus",
            "offset": 0,
            "slot": "6",
            "type": "t_string_storage"
          }
        ],
        "numberOfBytes": "224"
      },
      "t_uint256": {
        "encoding": "inplace",
        "label": "uint256",
        "numberOfBytes": "32"
      }
    }
  }
}