{
  "address": "0x153166492F02e225cd595E68022C367f193b26aA",
  "abi": [
    {
      "inputs": [
        {
          "internalType": "string",
          "name": "merchantName",
          "type": "string"
        }
      ],
      "stateMutability": "nonpayable",
      "type": "constructor"
    },
    {
      "anonymous": false,
      "inputs": [
        {
          "indexed": true,
          "internalType": "address",
          "name": "previousOwner",
          "type": "address"
        },
        {
          "indexed": true,
          "internalType": "address",
          "name": "newOwner",
          "type": "address"
        }
      ],
      "name": "OwnershipTransferred",
      "type": "event"
    },
    {
      "anonymous": false,
      "inputs": [
        {
          "components": [
            {
              "internalType": "uint256",
              "name": "orderID",
              "type": "uint256"
            },
            {
              "internalType": "uint256",
              "name": "productID",
              "type": "uint256"
            },
            {
              "internalType": "address",
              "name": "customerAddress",
              "type": "address"
            },
            {
              "internalType": "address",
              "name": "merchantAddress",
              "type": "address"
            },
            {
              "internalType": "uint256",
              "name": "orderAmount",
              "type": "uint256"
            },
            {
              "internalType": "uint256",
              "name": "expiryDate",
              "type": "uint256"
            },
            {
              "internalType": "string",
              "name": "orderStatus",
              "type": "string"
            }
          ],
          "indexed": false,
          "internalType": "struct QuboMerchant.OrderDetails",
          "name": "_detail",
          "type": "tuple"
        }
      ],
      "name": "orderRefunded",
      "type": "event"
    },
    {
      "anonymous": false,
      "inputs": [
        {
          "components": [
            {
              "internalType": "uint256",
              "name": "orderID",
              "type": "uint256"
            },
            {
              "internalType": "uint256",
              "name": "productID",
              "type": "uint256"
            },
            {
              "internalType": "address",
              "name": "customerAddress",
              "type": "address"
            },
            {
              "internalType": "address",
              "name": "merchantAddress",
              "type": "address"
            },
            {
              "internalType": "uint256",
              "name": "orderAmount",
              "type": "uint256"
            },
            {
              "internalType": "uint256",
              "name": "expiryDate",
              "type": "uint256"
            },
            {
              "internalType": "string",
              "name": "orderStatus",
              "type": "string"
            }
          ],
          "indexed": false,
          "internalType": "struct QuboMerchant.OrderDetails",
          "name": "_detail",
          "type": "tuple"
        }
      ],
      "name": "orderReleased",
      "type": "event"
    },
    {
      "anonymous": false,
      "inputs": [
        {
          "components": [
            {
              "internalType": "uint256",
              "name": "orderID",
              "type": "uint256"
            },
            {
              "internalType": "uint256",
              "name": "productID",
              "type": "uint256"
            },
            {
              "internalType": "address",
              "name": "customerAddress",
              "type": "address"
            },
            {
              "internalType": "address",
              "name": "merchantAddress",
              "type": "address"
            },
            {
              "internalType": "uint256",
              "name": "orderAmount",
              "type": "uint256"
            },
            {
              "internalType": "uint256",
              "name": "expiryDate",
              "type": "uint256"
            },
            {
              "internalType": "string",
              "name": "orderStatus",
              "type": "string"
            }
          ],
          "indexed": false,
          "internalType": "struct QuboMerchant.OrderDetails",
          "name": "_detail",
          "type": "tuple"
        }
      ],
      "name": "orderSigned",
      "type": "event"
    },
    {
      "anonymous": false,
      "inputs": [
        {
          "components": [
            {
              "internalType": "uint256",
              "name": "orderID",
              "type": "uint256"
            },
            {
              "internalType": "uint256",
              "name": "productID",
              "type": "uint256"
            },
            {
              "internalType": "address",
              "name": "customerAddress",
              "type": "address"
            },
            {
              "internalType": "address",
              "name": "merchantAddress",
              "type": "address"
            },
            {
              "internalType": "uint256",
              "name": "orderAmount",
              "type": "uint256"
            },
            {
              "internalType": "uint256",
              "name": "expiryDate",
              "type": "uint256"
            },
            {
              "internalType": "string",
              "name": "orderStatus",
              "type": "string"
            }
          ],
          "indexed": false,
          "internalType": "struct QuboMerchant.OrderDetails",
          "name": "_detail",
          "type": "tuple"
        }
      ],
      "name": "purchaseRegistered",
      "type": "event"
    },
    {
      "inputs": [],
      "name": "_merchantName",
      "outputs": [
        {
          "internalType": "string",
          "name": "",
          "type": "string"
        }
      ],
      "stateMutability": "view",
      "type": "function"
    },
    {
      "inputs": [
        {
          "internalType": "uint256",
          "name": "payableAmount",
          "type": "uint256"
        },
        {
          "internalType": "uint256",
          "name": "productID",
          "type": "uint256"
        }
      ],
      "name": "addPurchase",
      "outputs": [],
      "stateMutability": "payable",
      "type": "function"
    },
    {
      "inputs": [],
      "name": "balanceOf",
      "outputs": [
        {
          "internalType": "uint256",
          "name": "",
          "type": "uint256"
        }
      ],
      "stateMutability": "view",
      "type": "function"
    },
    {
      "inputs": [
        {
          "internalType": "uint256",
          "name": "",
          "type": "uint256"
        }
      ],
      "name": "orderList",
      "outputs": [
        {
          "internalType": "uint256",
          "name": "orderID",
          "type": "uint256"
        },
        {
          "internalType": "uint256",
          "name": "productID",
          "type": "uint256"
        },
        {
          "internalType": "address",
          "name": "customerAddress",
          "type": "address"
        },
        {
          "internalType": "address",
          "name": "merchantAddress",
          "type": "address"
        },
        {
          "internalType": "uint256",
          "name": "orderAmount",
          "type": "uint256"
        },
        {
          "internalType": "uint256",
          "name": "expiryDate",
          "type": "uint256"
        },
        {
          "internalType": "string",
          "name": "orderStatus",
          "type": "string"
        }
      ],
      "stateMutability": "view",
      "type": "function"
    },
    {
      "inputs": [],
      "name": "owner",
      "outputs": [
        {
          "internalType": "address",
          "name": "",
          "type": "address"
        }
      ],
      "stateMutability": "view",
      "type": "function"
    },
    {
      "inputs": [
        {
          "internalType": "address",
          "name": "destination",
          "type": "address"
        },
        {
          "internalType": "uint256",
          "name": "payableAmount",
          "type": "uint256"
        }
      ],
      "name": "payout",
      "outputs": [],
      "stateMutability": "nonpayable",
      "type": "function"
    },
    {
      "inputs": [
        {
          "internalType": "uint256",
          "name": "orderID",
          "type": "uint256"
        }
      ],
      "name": "refund",
      "outputs": [],
      "stateMutability": "nonpayable",
      "type": "function"
    },
    {
      "inputs": [
        {
          "internalType": "uint256",
          "name": "orderID",
          "type": "uint256"
        }
      ],
      "name": "release",
      "outputs": [],
      "stateMutability": "nonpayable",
      "type": "function"
    },
    {
      "inputs": [],
      "name": "renounceOwnership",
      "outputs": [],
      "stateMutability": "nonpayable",
      "type": "function"
    },
    {
      "inputs": [
        {
          "internalType": "uint256",
          "name": "orderID",
          "type": "uint256"
        }
      ],
      "name": "sign",
      "outputs": [],
      "stateMutability": "nonpayable",
      "type": "function"
    },
    {
      "inputs": [
        {
          "internalType": "address",
          "name": "newOwner",
          "type": "address"
        }
      ],
      "name": "transferOwnership",
      "outputs": [],
      "stateMutability": "nonpayable",
      "type": "function"
    }
  ],
  "transactionHash": "0xb87141d5bd6e46fc033046cab7541223feac667373aeeca8961e110718543eac",
  "args": [
    "xupeng"
  ],
  "numDeployments": 20,
  "solcInputHash": "03e7502ef968ce76d619480b9e8a176c",
  "bytecode": "0x608060405273f194afdf50b03e69bd7d057c1aa9e10c9954e4c9600260006101000a81548173ffffffffffffffffffffffffffffffffffffffff021916908373ffffffffffffffffffffffffffffffffffffffff1602179055506000600260146101000a81548160ff0219169083151502179055506000600260156101000a81548160ff0219169083151502179055506000600455348015620000a157600080fd5b5060405162002032380380620020328339818101604052810190620000c7919062000344565b620000e7620000db6200015660201b60201c565b6200015e60201b60201c565b6001808190555060008151141562000136576040517f08c379a00000000000000000000000000000000000000000000000000000000081526004016200012d90620003b0565b60405180910390fd5b80600390805190602001906200014e92919062000222565b50506200057c565b600033905090565b60008060009054906101000a900473ffffffffffffffffffffffffffffffffffffffff169050816000806101000a81548173ffffffffffffffffffffffffffffffffffffffff021916908373ffffffffffffffffffffffffffffffffffffffff1602179055508173ffffffffffffffffffffffffffffffffffffffff168173ffffffffffffffffffffffffffffffffffffffff167f8be0079c531659141344cd1fd0a4f28419497f9722a3daafe3b4186f6b6457e060405160405180910390a35050565b828054620002309062000478565b90600052602060002090601f016020900481019282620002545760008555620002a0565b82601f106200026f57805160ff1916838001178555620002a0565b82800160010185558215620002a0579182015b828111156200029f57825182559160200191906001019062000282565b5b509050620002af9190620002b3565b5090565b5b80821115620002ce576000816000905550600101620002b4565b5090565b6000620002e9620002e384620003fb565b620003d2565b9050828152602081018484840111156200030257600080fd5b6200030f84828562000442565b509392505050565b600082601f8301126200032957600080fd5b81516200033b848260208601620002d2565b91505092915050565b6000602082840312156200035757600080fd5b600082015167ffffffffffffffff8111156200037257600080fd5b620003808482850162000317565b91505092915050565b60006200039860168362000431565b9150620003a58262000553565b602082019050919050565b60006020820190508181036000830152620003cb8162000389565b9050919050565b6000620003de620003f1565b9050620003ec8282620004ae565b919050565b6000604051905090565b600067ffffffffffffffff82111562000419576200041862000513565b5b620004248262000542565b9050602081019050919050565b600082825260208201905092915050565b60005b838110156200046257808201518184015260208101905062000445565b8381111562000472576000848401525b50505050565b600060028204905060018216806200049157607f821691505b60208210811415620004a857620004a7620004e4565b5b50919050565b620004b98262000542565b810181811067ffffffffffffffff82111715620004db57620004da62000513565b5b80604052505050565b7f4e487b7100000000000000000000000000000000000000000000000000000000600052602260045260246000fd5b7f4e487b7100000000000000000000000000000000000000000000000000000000600052604160045260246000fd5b6000601f19601f8301169050919050565b7f4d65726368616e74206e616d6520697320626c616e6b00000000000000000000600082015250565b611aa6806200058c6000396000f3fe60806040526004361061009c5760003560e01c8063722713f711610064578063722713f71461015c57806376f75e7f146101875780638da5cb5b146101ca578063bda4df48146101f5578063f2fde38b14610211578063fd3c43031461023a5761009c565b8063117de2fd146100a1578063278ecde1146100ca5780632fb1b25f146100f357806337bdc99b1461011c578063715018a614610145575b600080fd5b3480156100ad57600080fd5b506100c860048036038101906100c39190611026565b610265565b005b3480156100d657600080fd5b506100f160048036038101906100ec9190611062565b6102b0565b005b3480156100ff57600080fd5b5061011a60048036038101906101159190611062565b610483565b005b34801561012857600080fd5b50610143600480360381019061013e9190611062565b6106d2565b005b34801561015157600080fd5b5061015a610892565b005b34801561016857600080fd5b5061017161091a565b60405161017e9190611619565b60405180910390f35b34801561019357600080fd5b506101ae60048036038101906101a99190611062565b610922565b6040516101c19796959493929190611634565b60405180910390f35b3480156101d657600080fd5b506101df610a2c565b6040516101ec91906114d8565b60405180910390f35b61020f600480360381019061020a919061108b565b610a55565b005b34801561021d57600080fd5b5061023860048036038101906102339190610ffd565b610cde565b005b34801561024657600080fd5b5061024f610dd6565b60405161025c91906114f3565b60405180910390f35b8173ffffffffffffffffffffffffffffffffffffffff166108fc829081150290604051600060405180830381858888f193505050501580156102ab573d6000803e3d6000fd5b505050565b6102b8610e64565b73ffffffffffffffffffffffffffffffffffffffff166102d6610a2c565b73ffffffffffffffffffffffffffffffffffffffff161461032c576040517f08c379a000000000000000000000000000000000000000000000000000000000815260040161032390611595565b60405180910390fd5b60026001541415610372576040517f08c379a0000000000000000000000000000000000000000000000000000000008152600401610369906115b5565b60405180910390fd5b60026001819055506103d06005600083815260200190815260200160002060020160009054906101000a900473ffffffffffffffffffffffffffffffffffffffff166005600084815260200190815260200160002060040154610265565b6040518060400160405280600881526020017f526566756e64656400000000000000000000000000000000000000000000000081525060056000838152602001908152602001600020600601908051906020019061042f929190610f30565b507f04a02498ac93f564671341147f6abb00db289913c7c28b3f80ac2152ea89ae106005600083815260200190815260200160002060405161047191906115f7565b60405180910390a16001808190555050565b6040518060400160405280600681526020017f436c6f736564000000000000000000000000000000000000000000000000000081525080519060200120600560008381526020019081526020016000206006016040516104e391906114c1565b6040518091039020141561052c576040517f08c379a000000000000000000000000000000000000000000000000000000000815260040161052390611575565b60405180910390fd5b3373ffffffffffffffffffffffffffffffffffffffff166005600083815260200190815260200160002060020160009054906101000a900473ffffffffffffffffffffffffffffffffffffffff1673ffffffffffffffffffffffffffffffffffffffff16146105d0576040517f08c379a00000000000000000000000000000000000000000000000000000000081526004016105c790611555565b60405180910390fd5b6040518060400160405280600681526020017f436c6f736564000000000000000000000000000000000000000000000000000081525060056000838152602001908152602001600020600601908051906020019061062f929190610f30565b506106866005600083815260200190815260200160002060020160009054906101000a900473ffffffffffffffffffffffffffffffffffffffff166005600084815260200190815260200160002060040154610265565b7f59a9faf8997cb9da54e858310edf70eb85340f73c01c2ee63cd79b1b5d321ca9600560008381526020019081526020016000206040516106c791906115f7565b60405180910390a150565b6106da610e64565b73ffffffffffffffffffffffffffffffffffffffff166106f8610a2c565b73ffffffffffffffffffffffffffffffffffffffff161461074e576040517f08c379a000000000000000000000000000000000000000000000000000000000815260040161074590611595565b60405180910390fd5b60026001541415610794576040517f08c379a000000000000000000000000000000000000000000000000000000000815260040161078b906115b5565b60405180910390fd5b600260018190555060056000828152602001908152602001600020600501544210156107bf57600080fd5b6107df336005600084815260200190815260200160002060040154610265565b6040518060400160405280600681526020017f436c6f736564000000000000000000000000000000000000000000000000000081525060056000838152602001908152602001600020600601908051906020019061083e929190610f30565b507ff1a050fd84f9b128433bdc28413c3dc9c1bd2ff2ce73e3b8787228ecef1988d96005600083815260200190815260200160002060405161088091906115f7565b60405180910390a16001808190555050565b61089a610e64565b73ffffffffffffffffffffffffffffffffffffffff166108b8610a2c565b73ffffffffffffffffffffffffffffffffffffffff161461090e576040517f08c379a000000000000000000000000000000000000000000000000000000000815260040161090590611595565b60405180910390fd5b6109186000610e6c565b565b600047905090565b60056020528060005260406000206000915090508060000154908060010154908060020160009054906101000a900473ffffffffffffffffffffffffffffffffffffffff16908060030160009054906101000a900473ffffffffffffffffffffffffffffffffffffffff16908060040154908060050154908060060180546109a9906117fb565b80601f01602080910402602001604051908101604052809291908181526020018280546109d5906117fb565b8015610a225780601f106109f757610100808354040283529160200191610a22565b820191906000526020600020905b815481529060010190602001808311610a0557829003601f168201915b5050505050905087565b60008060009054906101000a900473ffffffffffffffffffffffffffffffffffffffff16905090565b60026001541415610a9b576040517f08c379a0000000000000000000000000000000000000000000000000000000008152600401610a92906115b5565b60405180910390fd5b6002600181905550813414610ae5576040517f08c379a0000000000000000000000000000000000000000000000000000000008152600401610adc90611515565b60405180910390fd5b60006040518060e001604052806001600454610b01919061170c565b81526020018381526020013373ffffffffffffffffffffffffffffffffffffffff1681526020013073ffffffffffffffffffffffffffffffffffffffff168152602001848152602001600a42610b57919061170c565b81526020016040518060400160405280600681526020017f4163746976650000000000000000000000000000000000000000000000000000815250815250905060046000815480929190610baa90611861565b919050555080600560006004548152602001908152602001600020600082015181600001556020820151816001015560408201518160020160006101000a81548173ffffffffffffffffffffffffffffffffffffffff021916908373ffffffffffffffffffffffffffffffffffffffff16021790555060608201518160030160006101000a81548173ffffffffffffffffffffffffffffffffffffffff021916908373ffffffffffffffffffffffffffffffffffffffff1602179055506080820151816004015560a0820151816005015560c0820151816006019080519060200190610c97929190610f30565b509050507fd8e151b466f332dfacc12e5b6c0fb4e1cc13dcc349ed22057a8242cb9441b6be81604051610cca91906115d5565b60405180910390a150600180819055505050565b610ce6610e64565b73ffffffffffffffffffffffffffffffffffffffff16610d04610a2c565b73ffffffffffffffffffffffffffffffffffffffff1614610d5a576040517f08c379a0000000000000000000000000000000000000000000000000000000008152600401610d5190611595565b60405180910390fd5b600073ffffffffffffffffffffffffffffffffffffffff168173ffffffffffffffffffffffffffffffffffffffff161415610dca576040517f08c379a0000000000000000000000000000000000000000000000000000000008152600401610dc190611535565b60405180910390fd5b610dd381610e6c565b50565b60038054610de3906117fb565b80601f0160208091040260200160405190810160405280929190818152602001828054610e0f906117fb565b8015610e5c5780601f10610e3157610100808354040283529160200191610e5c565b820191906000526020600020905b815481529060010190602001808311610e3f57829003601f168201915b505050505081565b600033905090565b60008060009054906101000a900473ffffffffffffffffffffffffffffffffffffffff169050816000806101000a81548173ffffffffffffffffffffffffffffffffffffffff021916908373ffffffffffffffffffffffffffffffffffffffff1602179055508173ffffffffffffffffffffffffffffffffffffffff168173ffffffffffffffffffffffffffffffffffffffff167f8be0079c531659141344cd1fd0a4f28419497f9722a3daafe3b4186f6b6457e060405160405180910390a35050565b828054610f3c906117fb565b90600052602060002090601f016020900481019282610f5e5760008555610fa5565b82601f10610f7757805160ff1916838001178555610fa5565b82800160010185558215610fa5579182015b82811115610fa4578251825591602001919060010190610f89565b5b509050610fb29190610fb6565b5090565b5b80821115610fcf576000816000905550600101610fb7565b5090565b600081359050610fe281611a42565b92915050565b600081359050610ff781611a59565b92915050565b60006020828403121561100f57600080fd5b600061101d84828501610fd3565b91505092915050565b6000806040838503121561103957600080fd5b600061104785828601610fd3565b925050602061105885828601610fe8565b9150509250929050565b60006020828403121561107457600080fd5b600061108284828501610fe8565b91505092915050565b6000806040838503121561109e57600080fd5b60006110ac85828601610fe8565b92505060206110bd85828601610fe8565b9150509250929050565b6110d08161178c565b82525050565b6110df8161178c565b82525050565b600081546110f2816117fb565b6110fc81866116df565b9450600182166000811461111757600181146111285761115b565b60ff1983168652818601935061115b565b611131856116aa565b60005b8381101561115357815481890152600182019150602081019050611134565b838801955050505b50505092915050565b600061116f826116d4565b61117981856116ea565b93506111898185602086016117c8565b61119281611908565b840191505092915050565b60006111a8826116d4565b6111b281856116fb565b93506111c28185602086016117c8565b6111cb81611908565b840191505092915050565b600081546111e3816117fb565b6111ed81866116ea565b94506001821660008114611208576001811461121a5761124d565b60ff198316865260208601935061124d565b611223856116bf565b60005b8381101561124557815481890152600182019150602081019050611226565b808801955050505b50505092915050565b60006112636015836116fb565b915061126e82611926565b602082019050919050565b60006112866026836116fb565b91506112918261194f565b604082019050919050565b60006112a96020836116fb565b91506112b48261199e565b602082019050919050565b60006112cc601e836116fb565b91506112d7826119c7565b602082019050919050565b60006112ef6020836116fb565b91506112fa826119f0565b602082019050919050565b6000611312601f836116fb565b915061131d82611a19565b602082019050919050565b600060e08301600083015161134060008601826114a3565b50602083015161135360208601826114a3565b50604083015161136660408601826110c7565b50606083015161137960608601826110c7565b50608083015161138c60808601826114a3565b5060a083015161139f60a08601826114a3565b5060c083015184820360c08601526113b78282611164565b9150508091505092915050565b600060e0830160008084015490506113db81611847565b6113e860008701826114a3565b50600184015490506113f981611847565b61140660208701826114a3565b50600284015490506114178161182d565b61142460408701826110c7565b50600384015490506114358161182d565b61144260608701826110c7565b506004840154905061145381611847565b61146060808701826114a3565b506005840154905061147181611847565b61147e60a08701826114a3565b506006840185830360c087015261149583826111d6565b925050819250505092915050565b6114ac816117be565b82525050565b6114bb816117be565b82525050565b60006114cd82846110e5565b915081905092915050565b60006020820190506114ed60008301846110d6565b92915050565b6000602082019050818103600083015261150d818461119d565b905092915050565b6000602082019050818103600083015261152e81611256565b9050919050565b6000602082019050818103600083015261154e81611279565b9050919050565b6000602082019050818103600083015261156e8161129c565b9050919050565b6000602082019050818103600083015261158e816112bf565b9050919050565b600060208201905081810360008301526115ae816112e2565b9050919050565b600060208201905081810360008301526115ce81611305565b9050919050565b600060208201905081810360008301526115ef8184611328565b905092915050565b6000602082019050818103600083015261161181846113c4565b905092915050565b600060208201905061162e60008301846114b2565b92915050565b600060e082019050611649600083018a6114b2565b61165660208301896114b2565b61166360408301886110d6565b61167060608301876110d6565b61167d60808301866114b2565b61168a60a08301856114b2565b81810360c083015261169c818461119d565b905098975050505050505050565b60008190508160005260206000209050919050565b60008190508160005260206000209050919050565b600081519050919050565b600081905092915050565b600082825260208201905092915050565b600082825260208201905092915050565b6000611717826117be565b9150611722836117be565b9250827fffffffffffffffffffffffffffffffffffffffffffffffffffffffffffffffff03821115611757576117566118aa565b5b828201905092915050565b600073ffffffffffffffffffffffffffffffffffffffff82169050919050565b6000819050919050565b60006117978261179e565b9050919050565b600073ffffffffffffffffffffffffffffffffffffffff82169050919050565b6000819050919050565b60005b838110156117e65780820151818401526020810190506117cb565b838111156117f5576000848401525b50505050565b6000600282049050600182168061181357607f821691505b60208210811415611827576118266118d9565b5b50919050565b600061184061183b83611919565b611762565b9050919050565b600061185a61185583611919565b611782565b9050919050565b600061186c826117be565b91507fffffffffffffffffffffffffffffffffffffffffffffffffffffffffffffffff82141561189f5761189e6118aa565b5b600182019050919050565b7f4e487b7100000000000000000000000000000000000000000000000000000000600052601160045260246000fd5b7f4e487b7100000000000000000000000000000000000000000000000000000000600052602260045260246000fd5b6000601f19601f8301169050919050565b60008160001c9050919050565b7f50617961626c65206973206e6f742076616c6964210000000000000000000000600082015250565b7f4f776e61626c653a206e6577206f776e657220697320746865207a65726f206160008201527f6464726573730000000000000000000000000000000000000000000000000000602082015250565b7f4f7264657220494420646f6573206e6f742062656c6f6e6720746f2075736572600082015250565b7f437573746f6d65722068617320616c7265616479207265636569766564210000600082015250565b7f4f776e61626c653a2063616c6c6572206973206e6f7420746865206f776e6572600082015250565b7f5265656e7472616e637947756172643a207265656e7472616e742063616c6c00600082015250565b611a4b8161178c565b8114611a5657600080fd5b50565b611a62816117be565b8114611a6d57600080fd5b5056fea26469706673582212204984713d86c406010901cdc6ff999cfc94d6886f957aa26ac712f1a8bef3af7064736f6c63430008040033",
  "devdoc": {
    "kind": "dev",
    "methods": {
      "owner()": {
        "details": "Returns the address of the current owner."
      },
      "renounceOwnership()": {
        "details": "Leaves the contract without owner. It will not be possible to call `onlyOwner` functions anymore. Can only be called by the current owner. NOTE: Renouncing ownership will leave the contract without an owner, thereby removing any functionality that is only available to the owner."
      },
      "transferOwnership(address)": {
        "details": "Transfers ownership of the contract to a new account (`newOwner`). Can only be called by the current owner."
      }
    },
    "version": 1
  },
  "userdoc": {
    "kind": "user",
    "methods": {},
    "version": 1
  },
  "storageLayout": {
    "storage": [
      {
        "astId": 7,
        "contract": "contracts/QuboMerchant.sol:QuboMerchant",
        "label": "_owner",
        "offset": 0,
        "slot": "0",
        "type": "t_address"
      },
      {
        "astId": 115,
        "contract": "contracts/QuboMerchant.sol:QuboMerchant",
        "label": "_status",
        "offset": 0,
        "slot": "1",
        "type": "t_uint256"
      },
      {
        "astId": 869,
        "contract": "contracts/QuboMerchant.sol:QuboMerchant",
        "label": "_CELO",
        "offset": 0,
        "slot": "2",
        "type": "t_address"
      },
      {
        "astId": 872,
        "contract": "contracts/QuboMerchant.sol:QuboMerchant",
        "label": "_customerReceived",
        "offset": 20,
        "slot": "2",
        "type": "t_bool"
      },
      {
        "astId": 875,
        "contract": "contracts/QuboMerchant.sol:QuboMerchant",
        "label": "_merchantSent",
        "offset": 21,
        "slot": "2",
        "type": "t_bool"
      },
      {
        "astId": 877,
        "contract": "contracts/QuboMerchant.sol:QuboMerchant",
        "label": "_merchantName",
        "offset": 0,
        "slot": "3",
        "type": "t_string_storage"
      },
      {
        "astId": 880,
        "contract": "contracts/QuboMerchant.sol:QuboMerchant",
        "label": "orderCount",
        "offset": 0,
        "slot": "4",
        "type": "t_uint256"
      },
      {
        "astId": 920,
        "contract": "contracts/QuboMerchant.sol:QuboMerchant",
        "label": "orderList",
        "offset": 0,
        "slot": "5",
        "type": "t_mapping(t_uint256,t_struct(OrderDetails)915_storage)"
      }
    ],
    "types": {
      "t_address": {
        "encoding": "inplace",
        "label": "address",
        "numberOfBytes": "20"
      },
      "t_bool": {
        "encoding": "inplace",
        "label": "bool",
        "numberOfBytes": "1"
      },
      "t_mapping(t_uint256,t_struct(OrderDetails)915_storage)": {
        "encoding": "mapping",
        "key": "t_uint256",
        "label": "mapping(uint256 => struct QuboMerchant.OrderDetails)",
        "numberOfBytes": "32",
        "value": "t_struct(OrderDetails)915_storage"
      },
      "t_string_storage": {
        "encoding": "bytes",
        "label": "string",
        "numberOfBytes": "32"
      },
      "t_struct(OrderDetails)915_storage": {
        "encoding": "inplace",
        "label": "struct QuboMerchant.OrderDetails",
        "members": [
          {
            "astId": 902,
            "contract": "contracts/QuboMerchant.sol:QuboMerchant",
            "label": "orderID",
            "offset": 0,
            "slot": "0",
            "type": "t_uint256"
          },
          {
            "astId": 904,
            "contract": "contracts/QuboMerchant.sol:QuboMerchant",
            "label": "productID",
            "offset": 0,
            "slot": "1",
            "type": "t_uint256"
          },
          {
            "astId": 906,
            "contract": "contracts/QuboMerchant.sol:QuboMerchant",
            "label": "customerAddress",
            "offset": 0,
            "slot": "2",
            "type": "t_address"
          },
          {
            "astId": 908,
            "contract": "contracts/QuboMerchant.sol:QuboMerchant",
            "label": "merchantAddress",
            "offset": 0,
            "slot": "3",
            "type": "t_address"
          },
          {
            "astId": 910,
            "contract": "contracts/QuboMerchant.sol:QuboMerchant",
            "label": "orderAmount",
            "offset": 0,
            "slot": "4",
            "type": "t_uint256"
          },
          {
            "astId": 912,
            "contract": "contracts/QuboMerchant.sol:QuboMerchant",
            "label": "expiryDate",
            "offset": 0,
            "slot": "5",
            "type": "t_uint256"
          },
          {
            "astId": 914,
            "contract": "contracts/QuboMerchant.sol:QuboMerchant",
            "label": "orderStatus",
            "offset": 0,
            "slot": "6",
            "type": "t_string_storage"
          }
        ],
        "numberOfBytes": "224"
      },
      "t_uint256": {
        "encoding": "inplace",
        "label": "uint256",
        "numberOfBytes": "32"
      }
    }
  }
}