{
  "address": "0x6a192DEdD6B6a58Dd2660ec2b996f1448B9cEa9B",
  "abi": [
    {
      "inputs": [
        {
          "internalType": "string",
          "name": "merchantName",
          "type": "string"
        }
      ],
      "stateMutability": "nonpayable",
      "type": "constructor"
    },
    {
      "anonymous": false,
      "inputs": [
        {
          "indexed": true,
          "internalType": "address",
          "name": "previousOwner",
          "type": "address"
        },
        {
          "indexed": true,
          "internalType": "address",
          "name": "newOwner",
          "type": "address"
        }
      ],
      "name": "OwnershipTransferred",
      "type": "event"
    },
    {
      "inputs": [],
      "name": "_merchantName",
      "outputs": [
        {
          "internalType": "string",
          "name": "",
          "type": "string"
        }
      ],
      "stateMutability": "view",
      "type": "function"
    },
    {
      "inputs": [
        {
          "internalType": "uint256",
          "name": "payableAmount",
          "type": "uint256"
        }
      ],
      "name": "addPurchase",
      "outputs": [],
      "stateMutability": "payable",
      "type": "function"
    },
    {
      "inputs": [],
      "name": "balanceOf",
      "outputs": [
        {
          "internalType": "uint256",
          "name": "",
          "type": "uint256"
        }
      ],
      "stateMutability": "view",
      "type": "function"
    },
    {
      "inputs": [
        {
          "internalType": "uint256",
          "name": "",
          "type": "uint256"
        }
      ],
      "name": "orderList",
      "outputs": [
        {
          "internalType": "string",
          "name": "",
          "type": "string"
        }
      ],
      "stateMutability": "view",
      "type": "function"
    },
    {
      "inputs": [
        {
          "internalType": "uint256",
          "name": "",
          "type": "uint256"
        }
      ],
      "name": "orderStatus",
      "outputs": [
        {
          "internalType": "bool",
          "name": "",
          "type": "bool"
        }
      ],
      "stateMutability": "view",
      "type": "function"
    },
    {
      "inputs": [],
      "name": "owner",
      "outputs": [
        {
          "internalType": "address",
          "name": "",
          "type": "address"
        }
      ],
      "stateMutability": "view",
      "type": "function"
    },
    {
      "inputs": [],
      "name": "renounceOwnership",
      "outputs": [],
      "stateMutability": "nonpayable",
      "type": "function"
    },
    {
      "inputs": [
        {
          "internalType": "address",
          "name": "newOwner",
          "type": "address"
        }
      ],
      "name": "transferOwnership",
      "outputs": [],
      "stateMutability": "nonpayable",
      "type": "function"
    },
    {
      "inputs": [],
      "name": "withdraw",
      "outputs": [],
      "stateMutability": "nonpayable",
      "type": "function"
    }
  ],
  "transactionHash": "0x740a3ae268e22a3f710b424bcd734a01274770cc789bf92a1b1a71e0c2c080ee",
  "args": [
    "xupeng"
  ],
  "numDeployments": 1,
  "solcInputHash": "33e1fae973f8c9764e57bfe33df69057",
  "bytecode": "0x608060405273f194afdf50b03e69bd7d057c1aa9e10c9954e4c9600260006101000a81548173ffffffffffffffffffffffffffffffffffffffff021916908373ffffffffffffffffffffffffffffffffffffffff1602179055506000600260146101000a81548160ff0219169083151502179055506000600260156101000a81548160ff0219169083151502179055503480156200009c57600080fd5b50604051620011e4380380620011e48339818101604052810190620000c29190620002f7565b620000e2620000d66200010960201b60201c565b6200011160201b60201c565b60018081905550806003908051906020019062000101929190620001d5565b5050620004ac565b600033905090565b60008060009054906101000a900473ffffffffffffffffffffffffffffffffffffffff169050816000806101000a81548173ffffffffffffffffffffffffffffffffffffffff021916908373ffffffffffffffffffffffffffffffffffffffff1602179055508173ffffffffffffffffffffffffffffffffffffffff168173ffffffffffffffffffffffffffffffffffffffff167f8be0079c531659141344cd1fd0a4f28419497f9722a3daafe3b4186f6b6457e060405160405180910390a35050565b828054620001e390620003d1565b90600052602060002090601f01602090048101928262000207576000855562000253565b82601f106200022257805160ff191683800117855562000253565b8280016001018555821562000253579182015b828111156200025257825182559160200191906001019062000235565b5b50905062000262919062000266565b5090565b5b808211156200028157600081600090555060010162000267565b5090565b60006200029c620002968462000365565b6200033c565b905082815260208101848484011115620002b557600080fd5b620002c28482856200039b565b509392505050565b600082601f830112620002dc57600080fd5b8151620002ee84826020860162000285565b91505092915050565b6000602082840312156200030a57600080fd5b600082015167ffffffffffffffff8111156200032557600080fd5b6200033384828501620002ca565b91505092915050565b6000620003486200035b565b905062000356828262000407565b919050565b6000604051905090565b600067ffffffffffffffff8211156200038357620003826200046c565b5b6200038e826200049b565b9050602081019050919050565b60005b83811015620003bb5780820151818401526020810190506200039e565b83811115620003cb576000848401525b50505050565b60006002820490506001821680620003ea57607f821691505b602082108114156200040157620004006200043d565b5b50919050565b62000412826200049b565b810181811067ffffffffffffffff821117156200043457620004336200046c565b5b80604052505050565b7f4e487b7100000000000000000000000000000000000000000000000000000000600052602260045260246000fd5b7f4e487b7100000000000000000000000000000000000000000000000000000000600052604160045260246000fd5b6000601f19601f8301169050919050565b610d2880620004bc6000396000f3fe6080604052600436106100865760003560e01c8063861300d411610059578063861300d4146101215780638da5cb5b1461013d578063bff4945014610168578063f2fde38b146101a5578063fd3c4303146101ce57610086565b80633ccfd60b1461008b578063715018a6146100a2578063722713f7146100b957806376f75e7f146100e4575b600080fd5b34801561009757600080fd5b506100a06101f9565b005b3480156100ae57600080fd5b506100b7610379565b005b3480156100c557600080fd5b506100ce610401565b6040516100db9190610a9f565b60405180910390f35b3480156100f057600080fd5b5061010b60048036038101906101069190610831565b610409565b60405161011891906109dd565b60405180910390f35b61013b60048036038101906101369190610831565b6104a9565b005b34801561014957600080fd5b50610152610543565b60405161015f91906109a7565b60405180910390f35b34801561017457600080fd5b5061018f600480360381019061018a9190610831565b61056c565b60405161019c91906109c2565b60405180910390f35b3480156101b157600080fd5b506101cc60048036038101906101c79190610808565b61058c565b005b3480156101da57600080fd5b506101e3610684565b6040516101f091906109dd565b60405180910390f35b610201610712565b73ffffffffffffffffffffffffffffffffffffffff1661021f610543565b73ffffffffffffffffffffffffffffffffffffffff1614610275576040517f08c379a000000000000000000000000000000000000000000000000000000000815260040161026c90610a5f565b60405180910390fd5b600260015414156102bb576040517f08c379a00000000000000000000000000000000000000000000000000000000081526004016102b290610a7f565b60405180910390fd5b600260018190555060003373ffffffffffffffffffffffffffffffffffffffff16476040516102e990610992565b60006040518083038185875af1925050503d8060008114610326576040519150601f19603f3d011682016040523d82523d6000602084013e61032b565b606091505b505090508061036f576040517f08c379a000000000000000000000000000000000000000000000000000000000815260040161036690610a3f565b60405180910390fd5b5060018081905550565b610381610712565b73ffffffffffffffffffffffffffffffffffffffff1661039f610543565b73ffffffffffffffffffffffffffffffffffffffff16146103f5576040517f08c379a00000000000000000000000000000000000000000000000000000000081526004016103ec90610a5f565b60405180910390fd5b6103ff600061071a565b565b600047905090565b6004602052806000526040600020600091509050805461042890610b5c565b80601f016020809104026020016040519081016040528092919081815260200182805461045490610b5c565b80156104a15780601f10610476576101008083540402835291602001916104a1565b820191906000526020600020905b81548152906001019060200180831161048457829003601f168201915b505050505081565b600260015414156104ef576040517f08c379a00000000000000000000000000000000000000000000000000000000081526004016104e690610a7f565b60405180910390fd5b6002600181905550803414610539576040517f08c379a0000000000000000000000000000000000000000000000000000000008152600401610530906109ff565b60405180910390fd5b6001808190555050565b60008060009054906101000a900473ffffffffffffffffffffffffffffffffffffffff16905090565b60056020528060005260406000206000915054906101000a900460ff1681565b610594610712565b73ffffffffffffffffffffffffffffffffffffffff166105b2610543565b73ffffffffffffffffffffffffffffffffffffffff1614610608576040517f08c379a00000000000000000000000000000000000000000000000000000000081526004016105ff90610a5f565b60405180910390fd5b600073ffffffffffffffffffffffffffffffffffffffff168173ffffffffffffffffffffffffffffffffffffffff161415610678576040517f08c379a000000000000000000000000000000000000000000000000000000000815260040161066f90610a1f565b60405180910390fd5b6106818161071a565b50565b6003805461069190610b5c565b80601f01602080910402602001604051908101604052809291908181526020018280546106bd90610b5c565b801561070a5780601f106106df5761010080835404028352916020019161070a565b820191906000526020600020905b8154815290600101906020018083116106ed57829003601f168201915b505050505081565b600033905090565b60008060009054906101000a900473ffffffffffffffffffffffffffffffffffffffff169050816000806101000a81548173ffffffffffffffffffffffffffffffffffffffff021916908373ffffffffffffffffffffffffffffffffffffffff1602179055508173ffffffffffffffffffffffffffffffffffffffff168173ffffffffffffffffffffffffffffffffffffffff167f8be0079c531659141344cd1fd0a4f28419497f9722a3daafe3b4186f6b6457e060405160405180910390a35050565b6000813590506107ed81610cc4565b92915050565b60008135905061080281610cdb565b92915050565b60006020828403121561081a57600080fd5b6000610828848285016107de565b91505092915050565b60006020828403121561084357600080fd5b6000610851848285016107f3565b91505092915050565b61086381610ae1565b82525050565b61087281610af3565b82525050565b600061088382610aba565b61088d8185610ad0565b935061089d818560208601610b29565b6108a681610bbd565b840191505092915050565b60006108be601583610ad0565b91506108c982610bce565b602082019050919050565b60006108e1602683610ad0565b91506108ec82610bf7565b604082019050919050565b6000610904601083610ad0565b915061090f82610c46565b602082019050919050565b6000610927602083610ad0565b915061093282610c6f565b602082019050919050565b600061094a600083610ac5565b915061095582610c98565b600082019050919050565b600061096d601f83610ad0565b915061097882610c9b565b602082019050919050565b61098c81610b1f565b82525050565b600061099d8261093d565b9150819050919050565b60006020820190506109bc600083018461085a565b92915050565b60006020820190506109d76000830184610869565b92915050565b600060208201905081810360008301526109f78184610878565b905092915050565b60006020820190508181036000830152610a18816108b1565b9050919050565b60006020820190508181036000830152610a38816108d4565b9050919050565b60006020820190508181036000830152610a58816108f7565b9050919050565b60006020820190508181036000830152610a788161091a565b9050919050565b60006020820190508181036000830152610a9881610960565b9050919050565b6000602082019050610ab46000830184610983565b92915050565b600081519050919050565b600081905092915050565b600082825260208201905092915050565b6000610aec82610aff565b9050919050565b60008115159050919050565b600073ffffffffffffffffffffffffffffffffffffffff82169050919050565b6000819050919050565b60005b83811015610b47578082015181840152602081019050610b2c565b83811115610b56576000848401525b50505050565b60006002820490506001821680610b7457607f821691505b60208210811415610b8857610b87610b8e565b5b50919050565b7f4e487b7100000000000000000000000000000000000000000000000000000000600052602260045260246000fd5b6000601f19601f8301169050919050565b7f50617961626c65206973206e6f742076616c6964210000000000000000000000600082015250565b7f4f776e61626c653a206e6577206f776e657220697320746865207a65726f206160008201527f6464726573730000000000000000000000000000000000000000000000000000602082015250565b7f5769746864726177206661696c65642e00000000000000000000000000000000600082015250565b7f4f776e61626c653a2063616c6c6572206973206e6f7420746865206f776e6572600082015250565b50565b7f5265656e7472616e637947756172643a207265656e7472616e742063616c6c00600082015250565b610ccd81610ae1565b8114610cd857600080fd5b50565b610ce481610b1f565b8114610cef57600080fd5b5056fea2646970667358221220103daf08526e20e19e03f3a1bb098b9b068f13396d380e4556dd8090214566f564736f6c63430008040033",
  "devdoc": {
    "kind": "dev",
    "methods": {
      "owner()": {
        "details": "Returns the address of the current owner."
      },
      "renounceOwnership()": {
        "details": "Leaves the contract without owner. It will not be possible to call `onlyOwner` functions anymore. Can only be called by the current owner. NOTE: Renouncing ownership will leave the contract without an owner, thereby removing any functionality that is only available to the owner."
      },
      "transferOwnership(address)": {
        "details": "Transfers ownership of the contract to a new account (`newOwner`). Can only be called by the current owner."
      }
    },
    "version": 1
  },
  "userdoc": {
    "kind": "user",
    "methods": {},
    "version": 1
  },
  "storageLayout": {
    "storage": [
      {
        "astId": 7,
        "contract": "contracts/QuboMerchant.sol:QuboMerchant",
        "label": "_owner",
        "offset": 0,
        "slot": "0",
        "type": "t_address"
      },
      {
        "astId": 115,
        "contract": "contracts/QuboMerchant.sol:QuboMerchant",
        "label": "_status",
        "offset": 0,
        "slot": "1",
        "type": "t_uint256"
      },
      {
        "astId": 869,
        "contract": "contracts/QuboMerchant.sol:QuboMerchant",
        "label": "_CELO",
        "offset": 0,
        "slot": "2",
        "type": "t_address"
      },
      {
        "astId": 872,
        "contract": "contracts/QuboMerchant.sol:QuboMerchant",
        "label": "_customerReceived",
        "offset": 20,
        "slot": "2",
        "type": "t_bool"
      },
      {
        "astId": 875,
        "contract": "contracts/QuboMerchant.sol:QuboMerchant",
        "label": "_merchantSent",
        "offset": 21,
        "slot": "2",
        "type": "t_bool"
      },
      {
        "astId": 877,
        "contract": "contracts/QuboMerchant.sol:QuboMerchant",
        "label": "_merchantName",
        "offset": 0,
        "slot": "3",
        "type": "t_string_storage"
      },
      {
        "astId": 881,
        "contract": "contracts/QuboMerchant.sol:QuboMerchant",
        "label": "orderList",
        "offset": 0,
        "slot": "4",
        "type": "t_mapping(t_uint256,t_string_storage)"
      },
      {
        "astId": 885,
        "contract": "contracts/QuboMerchant.sol:QuboMerchant",
        "label": "orderStatus",
        "offset": 0,
        "slot": "5",
        "type": "t_mapping(t_uint256,t_bool)"
      }
    ],
    "types": {
      "t_address": {
        "encoding": "inplace",
        "label": "address",
        "numberOfBytes": "20"
      },
      "t_bool": {
        "encoding": "inplace",
        "label": "bool",
        "numberOfBytes": "1"
      },
      "t_mapping(t_uint256,t_bool)": {
        "encoding": "mapping",
        "key": "t_uint256",
        "label": "mapping(uint256 => bool)",
        "numberOfBytes": "32",
        "value": "t_bool"
      },
      "t_mapping(t_uint256,t_string_storage)": {
        "encoding": "mapping",
        "key": "t_uint256",
        "label": "mapping(uint256 => string)",
        "numberOfBytes": "32",
        "value": "t_string_storage"
      },
      "t_string_storage": {
        "encoding": "bytes",
        "label": "string",
        "numberOfBytes": "32"
      },
      "t_uint256": {
        "encoding": "inplace",
        "label": "uint256",
        "numberOfBytes": "32"
      }
    }
  }
}