{
  "address": "0x5454c70eBc57fe78E4608567182dB7a92300DB20",
  "abi": [
    {
      "inputs": [
        {
          "internalType": "string",
          "name": "merchantName",
          "type": "string"
        },
        {
          "internalType": "address",
          "name": "merchantAddress",
          "type": "address"
        }
      ],
      "stateMutability": "nonpayable",
      "type": "constructor"
    },
    {
      "anonymous": false,
      "inputs": [
        {
          "indexed": true,
          "internalType": "address",
          "name": "previousOwner",
          "type": "address"
        },
        {
          "indexed": true,
          "internalType": "address",
          "name": "newOwner",
          "type": "address"
        }
      ],
      "name": "OwnershipTransferred",
      "type": "event"
    },
    {
      "anonymous": false,
      "inputs": [
        {
          "components": [
            {
              "internalType": "uint256",
              "name": "orderID",
              "type": "uint256"
            },
            {
              "internalType": "uint256",
              "name": "productID",
              "type": "uint256"
            },
            {
              "internalType": "address",
              "name": "customerAddress",
              "type": "address"
            },
            {
              "internalType": "address",
              "name": "merchantAddress",
              "type": "address"
            },
            {
              "internalType": "uint256",
              "name": "orderAmount",
              "type": "uint256"
            },
            {
              "internalType": "uint256",
              "name": "expiryDate",
              "type": "uint256"
            },
            {
              "internalType": "string",
              "name": "orderStatus",
              "type": "string"
            }
          ],
          "indexed": false,
          "internalType": "struct QuboMerchant.OrderDetails",
          "name": "_detail",
          "type": "tuple"
        }
      ],
      "name": "orderRefunded",
      "type": "event"
    },
    {
      "anonymous": false,
      "inputs": [
        {
          "components": [
            {
              "internalType": "uint256",
              "name": "orderID",
              "type": "uint256"
            },
            {
              "internalType": "uint256",
              "name": "productID",
              "type": "uint256"
            },
            {
              "internalType": "address",
              "name": "customerAddress",
              "type": "address"
            },
            {
              "internalType": "address",
              "name": "merchantAddress",
              "type": "address"
            },
            {
              "internalType": "uint256",
              "name": "orderAmount",
              "type": "uint256"
            },
            {
              "internalType": "uint256",
              "name": "expiryDate",
              "type": "uint256"
            },
            {
              "internalType": "string",
              "name": "orderStatus",
              "type": "string"
            }
          ],
          "indexed": false,
          "internalType": "struct QuboMerchant.OrderDetails",
          "name": "_detail",
          "type": "tuple"
        }
      ],
      "name": "orderReleased",
      "type": "event"
    },
    {
      "anonymous": false,
      "inputs": [
        {
          "components": [
            {
              "internalType": "uint256",
              "name": "orderID",
              "type": "uint256"
            },
            {
              "internalType": "uint256",
              "name": "productID",
              "type": "uint256"
            },
            {
              "internalType": "address",
              "name": "customerAddress",
              "type": "address"
            },
            {
              "internalType": "address",
              "name": "merchantAddress",
              "type": "address"
            },
            {
              "internalType": "uint256",
              "name": "orderAmount",
              "type": "uint256"
            },
            {
              "internalType": "uint256",
              "name": "expiryDate",
              "type": "uint256"
            },
            {
              "internalType": "string",
              "name": "orderStatus",
              "type": "string"
            }
          ],
          "indexed": false,
          "internalType": "struct QuboMerchant.OrderDetails",
          "name": "_detail",
          "type": "tuple"
        }
      ],
      "name": "orderSigned",
      "type": "event"
    },
    {
      "anonymous": false,
      "inputs": [
        {
          "components": [
            {
              "internalType": "uint256",
              "name": "orderID",
              "type": "uint256"
            },
            {
              "internalType": "uint256",
              "name": "productID",
              "type": "uint256"
            },
            {
              "internalType": "address",
              "name": "customerAddress",
              "type": "address"
            },
            {
              "internalType": "address",
              "name": "merchantAddress",
              "type": "address"
            },
            {
              "internalType": "uint256",
              "name": "orderAmount",
              "type": "uint256"
            },
            {
              "internalType": "uint256",
              "name": "expiryDate",
              "type": "uint256"
            },
            {
              "internalType": "string",
              "name": "orderStatus",
              "type": "string"
            }
          ],
          "indexed": false,
          "internalType": "struct QuboMerchant.OrderDetails",
          "name": "_detail",
          "type": "tuple"
        }
      ],
      "name": "purchaseRegistered",
      "type": "event"
    },
    {
      "inputs": [],
      "name": "_merchantAddress",
      "outputs": [
        {
          "internalType": "address",
          "name": "",
          "type": "address"
        }
      ],
      "stateMutability": "view",
      "type": "function"
    },
    {
      "inputs": [],
      "name": "_merchantName",
      "outputs": [
        {
          "internalType": "string",
          "name": "",
          "type": "string"
        }
      ],
      "stateMutability": "view",
      "type": "function"
    },
    {
      "inputs": [
        {
          "internalType": "uint256",
          "name": "payableAmount",
          "type": "uint256"
        },
        {
          "internalType": "uint256",
          "name": "productID",
          "type": "uint256"
        }
      ],
      "name": "addPurchase",
      "outputs": [],
      "stateMutability": "payable",
      "type": "function"
    },
    {
      "inputs": [],
      "name": "balanceOf",
      "outputs": [
        {
          "internalType": "uint256",
          "name": "",
          "type": "uint256"
        }
      ],
      "stateMutability": "view",
      "type": "function"
    },
    {
      "inputs": [
        {
          "internalType": "uint256",
          "name": "",
          "type": "uint256"
        }
      ],
      "name": "orderList",
      "outputs": [
        {
          "internalType": "uint256",
          "name": "orderID",
          "type": "uint256"
        },
        {
          "internalType": "uint256",
          "name": "productID",
          "type": "uint256"
        },
        {
          "internalType": "address",
          "name": "customerAddress",
          "type": "address"
        },
        {
          "internalType": "address",
          "name": "merchantAddress",
          "type": "address"
        },
        {
          "internalType": "uint256",
          "name": "orderAmount",
          "type": "uint256"
        },
        {
          "internalType": "uint256",
          "name": "expiryDate",
          "type": "uint256"
        },
        {
          "internalType": "string",
          "name": "orderStatus",
          "type": "string"
        }
      ],
      "stateMutability": "view",
      "type": "function"
    },
    {
      "inputs": [],
      "name": "owner",
      "outputs": [
        {
          "internalType": "address",
          "name": "",
          "type": "address"
        }
      ],
      "stateMutability": "view",
      "type": "function"
    },
    {
      "inputs": [
        {
          "internalType": "address",
          "name": "destination",
          "type": "address"
        },
        {
          "internalType": "uint256",
          "name": "payableAmount",
          "type": "uint256"
        }
      ],
      "name": "payout",
      "outputs": [],
      "stateMutability": "nonpayable",
      "type": "function"
    },
    {
      "inputs": [
        {
          "internalType": "uint256",
          "name": "orderID",
          "type": "uint256"
        }
      ],
      "name": "refund",
      "outputs": [],
      "stateMutability": "nonpayable",
      "type": "function"
    },
    {
      "inputs": [
        {
          "internalType": "uint256",
          "name": "orderID",
          "type": "uint256"
        }
      ],
      "name": "release",
      "outputs": [],
      "stateMutability": "nonpayable",
      "type": "function"
    },
    {
      "inputs": [],
      "name": "renounceOwnership",
      "outputs": [],
      "stateMutability": "nonpayable",
      "type": "function"
    },
    {
      "inputs": [
        {
          "internalType": "uint256",
          "name": "orderID",
          "type": "uint256"
        }
      ],
      "name": "sign",
      "outputs": [],
      "stateMutability": "nonpayable",
      "type": "function"
    },
    {
      "inputs": [
        {
          "internalType": "address",
          "name": "newOwner",
          "type": "address"
        }
      ],
      "name": "transferOwnership",
      "outputs": [],
      "stateMutability": "nonpayable",
      "type": "function"
    }
  ],
  "transactionHash": "0x608c0395b5cebd421b127e339d8cc34bacf1368bd2aa04a6247b5d0aef8eb27e",
  "args": [
    "xupeng",
    "0x667C2c3E6c0b3fDa899c62CF065Ef4c73FE99C02"
  ],
  "numDeployments": 6,
  "solcInputHash": "1a4b31d6d9b8797d754a47395d0bed0f",
  "bytecode": "0x608060405273f194afdf50b03e69bd7d057c1aa9e10c9954e4c9600260006101000a81548173ffffffffffffffffffffffffffffffffffffffff021916908373ffffffffffffffffffffffffffffffffffffffff1602179055506000600360146101000a81548160ff0219169083151502179055506000600360156101000a81548160ff0219169083151502179055506000600555348015620000a157600080fd5b506040516200216c3803806200216c8339818101604052810190620000c791906200039d565b620000e7620000db6200019860201b60201c565b620001a060201b60201c565b6001808190555060008251141562000136576040517f08c379a00000000000000000000000000000000000000000000000000000000081526004016200012d906200041e565b60405180910390fd5b81600490805190602001906200014e92919062000264565b5080600360006101000a81548173ffffffffffffffffffffffffffffffffffffffff021916908373ffffffffffffffffffffffffffffffffffffffff160217905550505062000638565b600033905090565b60008060009054906101000a900473ffffffffffffffffffffffffffffffffffffffff169050816000806101000a81548173ffffffffffffffffffffffffffffffffffffffff021916908373ffffffffffffffffffffffffffffffffffffffff1602179055508173ffffffffffffffffffffffffffffffffffffffff168173ffffffffffffffffffffffffffffffffffffffff167f8be0079c531659141344cd1fd0a4f28419497f9722a3daafe3b4186f6b6457e060405160405180910390a35050565b82805462000272906200051a565b90600052602060002090601f016020900481019282620002965760008555620002e2565b82601f10620002b157805160ff1916838001178555620002e2565b82800160010185558215620002e2579182015b82811115620002e1578251825591602001919060010190620002c4565b5b509050620002f19190620002f5565b5090565b5b8082111562000310576000816000905550600101620002f6565b5090565b60006200032b620003258462000469565b62000440565b9050828152602081018484840111156200034457600080fd5b62000351848285620004e4565b509392505050565b6000815190506200036a816200061e565b92915050565b600082601f8301126200038257600080fd5b81516200039484826020860162000314565b91505092915050565b60008060408385031215620003b157600080fd5b600083015167ffffffffffffffff811115620003cc57600080fd5b620003da8582860162000370565b9250506020620003ed8582860162000359565b9150509250929050565b6000620004066016836200049f565b91506200041382620005f5565b602082019050919050565b600060208201905081810360008301526200043981620003f7565b9050919050565b60006200044c6200045f565b90506200045a828262000550565b919050565b6000604051905090565b600067ffffffffffffffff821115620004875762000486620005b5565b5b6200049282620005e4565b9050602081019050919050565b600082825260208201905092915050565b6000620004bd82620004c4565b9050919050565b600073ffffffffffffffffffffffffffffffffffffffff82169050919050565b60005b8381101562000504578082015181840152602081019050620004e7565b8381111562000514576000848401525b50505050565b600060028204905060018216806200053357607f821691505b602082108114156200054a576200054962000586565b5b50919050565b6200055b82620005e4565b810181811067ffffffffffffffff821117156200057d576200057c620005b5565b5b80604052505050565b7f4e487b7100000000000000000000000000000000000000000000000000000000600052602260045260246000fd5b7f4e487b7100000000000000000000000000000000000000000000000000000000600052604160045260246000fd5b6000601f19601f8301169050919050565b7f4d65726368616e74206e616d6520697320626c616e6b00000000000000000000600082015250565b6200062981620004b0565b81146200063557600080fd5b50565b611b2480620006486000396000f3fe6080604052600436106100a75760003560e01c806376f75e7f1161006457806376f75e7f146101925780638da5cb5b146101d5578063bda4df4814610200578063d1910de91461021c578063f2fde38b14610247578063fd3c430314610270576100a7565b8063117de2fd146100ac578063278ecde1146100d55780632fb1b25f146100fe57806337bdc99b14610127578063715018a614610150578063722713f714610167575b600080fd5b3480156100b857600080fd5b506100d360048036038101906100ce91906110a4565b61029b565b005b3480156100e157600080fd5b506100fc60048036038101906100f791906110e0565b6102e6565b005b34801561010a57600080fd5b50610125600480360381019061012091906110e0565b6104b9565b005b34801561013357600080fd5b5061014e600480360381019061014991906110e0565b610708565b005b34801561015c57600080fd5b506101656108c8565b005b34801561017357600080fd5b5061017c610950565b6040516101899190611697565b60405180910390f35b34801561019e57600080fd5b506101b960048036038101906101b491906110e0565b610958565b6040516101cc97969594939291906116b2565b60405180910390f35b3480156101e157600080fd5b506101ea610a62565b6040516101f79190611556565b60405180910390f35b61021a60048036038101906102159190611109565b610a8b565b005b34801561022857600080fd5b50610231610d36565b60405161023e9190611556565b60405180910390f35b34801561025357600080fd5b5061026e6004803603810190610269919061107b565b610d5c565b005b34801561027c57600080fd5b50610285610e54565b6040516102929190611571565b60405180910390f35b8173ffffffffffffffffffffffffffffffffffffffff166108fc829081150290604051600060405180830381858888f193505050501580156102e1573d6000803e3d6000fd5b505050565b6102ee610ee2565b73ffffffffffffffffffffffffffffffffffffffff1661030c610a62565b73ffffffffffffffffffffffffffffffffffffffff1614610362576040517f08c379a000000000000000000000000000000000000000000000000000000000815260040161035990611613565b60405180910390fd5b600260015414156103a8576040517f08c379a000000000000000000000000000000000000000000000000000000000815260040161039f90611633565b60405180910390fd5b60026001819055506104066006600083815260200190815260200160002060020160009054906101000a900473ffffffffffffffffffffffffffffffffffffffff16600660008481526020019081526020016000206004015461029b565b6040518060400160405280600881526020017f526566756e646564000000000000000000000000000000000000000000000000815250600660008381526020019081526020016000206006019080519060200190610465929190610fae565b507f04a02498ac93f564671341147f6abb00db289913c7c28b3f80ac2152ea89ae10600660008381526020019081526020016000206040516104a79190611675565b60405180910390a16001808190555050565b6040518060400160405280600681526020017f436c6f73656400000000000000000000000000000000000000000000000000008152508051906020012060066000838152602001908152602001600020600601604051610519919061153f565b60405180910390201415610562576040517f08c379a0000000000000000000000000000000000000000000000000000000008152600401610559906115f3565b60405180910390fd5b3373ffffffffffffffffffffffffffffffffffffffff166006600083815260200190815260200160002060020160009054906101000a900473ffffffffffffffffffffffffffffffffffffffff1673ffffffffffffffffffffffffffffffffffffffff1614610606576040517f08c379a00000000000000000000000000000000000000000000000000000000081526004016105fd906115d3565b60405180910390fd5b6040518060400160405280600681526020017f436c6f7365640000000000000000000000000000000000000000000000000000815250600660008381526020019081526020016000206006019080519060200190610665929190610fae565b506106bc6006600083815260200190815260200160002060020160009054906101000a900473ffffffffffffffffffffffffffffffffffffffff16600660008481526020019081526020016000206004015461029b565b7f59a9faf8997cb9da54e858310edf70eb85340f73c01c2ee63cd79b1b5d321ca9600660008381526020019081526020016000206040516106fd9190611675565b60405180910390a150565b610710610ee2565b73ffffffffffffffffffffffffffffffffffffffff1661072e610a62565b73ffffffffffffffffffffffffffffffffffffffff1614610784576040517f08c379a000000000000000000000000000000000000000000000000000000000815260040161077b90611613565b60405180910390fd5b600260015414156107ca576040517f08c379a00000000000000000000000000000000000000000000000000000000081526004016107c190611633565b60405180910390fd5b600260018190555060066000828152602001908152602001600020600501544210156107f557600080fd5b61081533600660008481526020019081526020016000206004015461029b565b6040518060400160405280600681526020017f436c6f7365640000000000000000000000000000000000000000000000000000815250600660008381526020019081526020016000206006019080519060200190610874929190610fae565b507ff1a050fd84f9b128433bdc28413c3dc9c1bd2ff2ce73e3b8787228ecef1988d9600660008381526020019081526020016000206040516108b69190611675565b60405180910390a16001808190555050565b6108d0610ee2565b73ffffffffffffffffffffffffffffffffffffffff166108ee610a62565b73ffffffffffffffffffffffffffffffffffffffff1614610944576040517f08c379a000000000000000000000000000000000000000000000000000000000815260040161093b90611613565b60405180910390fd5b61094e6000610eea565b565b600047905090565b60066020528060005260406000206000915090508060000154908060010154908060020160009054906101000a900473ffffffffffffffffffffffffffffffffffffffff16908060030160009054906101000a900473ffffffffffffffffffffffffffffffffffffffff16908060040154908060050154908060060180546109df90611879565b80601f0160208091040260200160405190810160405280929190818152602001828054610a0b90611879565b8015610a585780601f10610a2d57610100808354040283529160200191610a58565b820191906000526020600020905b815481529060010190602001808311610a3b57829003601f168201915b5050505050905087565b60008060009054906101000a900473ffffffffffffffffffffffffffffffffffffffff16905090565b60026001541415610ad1576040517f08c379a0000000000000000000000000000000000000000000000000000000008152600401610ac890611633565b60405180910390fd5b6002600181905550813414610b1b576040517f08c379a0000000000000000000000000000000000000000000000000000000008152600401610b1290611593565b60405180910390fd5b60006040518060e001604052806001600554610b37919061178a565b81526020018381526020013373ffffffffffffffffffffffffffffffffffffffff168152602001600360009054906101000a900473ffffffffffffffffffffffffffffffffffffffff1673ffffffffffffffffffffffffffffffffffffffff168152602001848152602001603c42610baf919061178a565b81526020016040518060400160405280600681526020017f4163746976650000000000000000000000000000000000000000000000000000815250815250905060056000815480929190610c02906118df565b919050555080600660006005548152602001908152602001600020600082015181600001556020820151816001015560408201518160020160006101000a81548173ffffffffffffffffffffffffffffffffffffffff021916908373ffffffffffffffffffffffffffffffffffffffff16021790555060608201518160030160006101000a81548173ffffffffffffffffffffffffffffffffffffffff021916908373ffffffffffffffffffffffffffffffffffffffff1602179055506080820151816004015560a0820151816005015560c0820151816006019080519060200190610cef929190610fae565b509050507fd8e151b466f332dfacc12e5b6c0fb4e1cc13dcc349ed22057a8242cb9441b6be81604051610d229190611653565b60405180910390a150600180819055505050565b600360009054906101000a900473ffffffffffffffffffffffffffffffffffffffff1681565b610d64610ee2565b73ffffffffffffffffffffffffffffffffffffffff16610d82610a62565b73ffffffffffffffffffffffffffffffffffffffff1614610dd8576040517f08c379a0000000000000000000000000000000000000000000000000000000008152600401610dcf90611613565b60405180910390fd5b600073ffffffffffffffffffffffffffffffffffffffff168173ffffffffffffffffffffffffffffffffffffffff161415610e48576040517f08c379a0000000000000000000000000000000000000000000000000000000008152600401610e3f906115b3565b60405180910390fd5b610e5181610eea565b50565b60048054610e6190611879565b80601f0160208091040260200160405190810160405280929190818152602001828054610e8d90611879565b8015610eda5780601f10610eaf57610100808354040283529160200191610eda565b820191906000526020600020905b815481529060010190602001808311610ebd57829003601f168201915b505050505081565b600033905090565b60008060009054906101000a900473ffffffffffffffffffffffffffffffffffffffff169050816000806101000a81548173ffffffffffffffffffffffffffffffffffffffff021916908373ffffffffffffffffffffffffffffffffffffffff1602179055508173ffffffffffffffffffffffffffffffffffffffff168173ffffffffffffffffffffffffffffffffffffffff167f8be0079c531659141344cd1fd0a4f28419497f9722a3daafe3b4186f6b6457e060405160405180910390a35050565b828054610fba90611879565b90600052602060002090601f016020900481019282610fdc5760008555611023565b82601f10610ff557805160ff1916838001178555611023565b82800160010185558215611023579182015b82811115611022578251825591602001919060010190611007565b5b5090506110309190611034565b5090565b5b8082111561104d576000816000905550600101611035565b5090565b60008135905061106081611ac0565b92915050565b60008135905061107581611ad7565b92915050565b60006020828403121561108d57600080fd5b600061109b84828501611051565b91505092915050565b600080604083850312156110b757600080fd5b60006110c585828601611051565b92505060206110d685828601611066565b9150509250929050565b6000602082840312156110f257600080fd5b600061110084828501611066565b91505092915050565b6000806040838503121561111c57600080fd5b600061112a85828601611066565b925050602061113b85828601611066565b9150509250929050565b61114e8161180a565b82525050565b61115d8161180a565b82525050565b6000815461117081611879565b61117a818661175d565b9450600182166000811461119557600181146111a6576111d9565b60ff198316865281860193506111d9565b6111af85611728565b60005b838110156111d1578154818901526001820191506020810190506111b2565b838801955050505b50505092915050565b60006111ed82611752565b6111f78185611768565b9350611207818560208601611846565b61121081611986565b840191505092915050565b600061122682611752565b6112308185611779565b9350611240818560208601611846565b61124981611986565b840191505092915050565b6000815461126181611879565b61126b8186611768565b945060018216600081146112865760018114611298576112cb565b60ff19831686526020860193506112cb565b6112a18561173d565b60005b838110156112c3578154818901526001820191506020810190506112a4565b808801955050505b50505092915050565b60006112e1601583611779565b91506112ec826119a4565b602082019050919050565b6000611304602683611779565b915061130f826119cd565b604082019050919050565b6000611327602083611779565b915061133282611a1c565b602082019050919050565b600061134a601e83611779565b915061135582611a45565b602082019050919050565b600061136d602083611779565b915061137882611a6e565b602082019050919050565b6000611390601f83611779565b915061139b82611a97565b602082019050919050565b600060e0830160008301516113be6000860182611521565b5060208301516113d16020860182611521565b5060408301516113e46040860182611145565b5060608301516113f76060860182611145565b50608083015161140a6080860182611521565b5060a083015161141d60a0860182611521565b5060c083015184820360c086015261143582826111e2565b9150508091505092915050565b600060e083016000808401549050611459816118c5565b6114666000870182611521565b5060018401549050611477816118c5565b6114846020870182611521565b5060028401549050611495816118ab565b6114a26040870182611145565b50600384015490506114b3816118ab565b6114c06060870182611145565b50600484015490506114d1816118c5565b6114de6080870182611521565b50600584015490506114ef816118c5565b6114fc60a0870182611521565b506006840185830360c08701526115138382611254565b925050819250505092915050565b61152a8161183c565b82525050565b6115398161183c565b82525050565b600061154b8284611163565b915081905092915050565b600060208201905061156b6000830184611154565b92915050565b6000602082019050818103600083015261158b818461121b565b905092915050565b600060208201905081810360008301526115ac816112d4565b9050919050565b600060208201905081810360008301526115cc816112f7565b9050919050565b600060208201905081810360008301526115ec8161131a565b9050919050565b6000602082019050818103600083015261160c8161133d565b9050919050565b6000602082019050818103600083015261162c81611360565b9050919050565b6000602082019050818103600083015261164c81611383565b9050919050565b6000602082019050818103600083015261166d81846113a6565b905092915050565b6000602082019050818103600083015261168f8184611442565b905092915050565b60006020820190506116ac6000830184611530565b92915050565b600060e0820190506116c7600083018a611530565b6116d46020830189611530565b6116e16040830188611154565b6116ee6060830187611154565b6116fb6080830186611530565b61170860a0830185611530565b81810360c083015261171a818461121b565b905098975050505050505050565b60008190508160005260206000209050919050565b60008190508160005260206000209050919050565b600081519050919050565b600081905092915050565b600082825260208201905092915050565b600082825260208201905092915050565b60006117958261183c565b91506117a08361183c565b9250827fffffffffffffffffffffffffffffffffffffffffffffffffffffffffffffffff038211156117d5576117d4611928565b5b828201905092915050565b600073ffffffffffffffffffffffffffffffffffffffff82169050919050565b6000819050919050565b60006118158261181c565b9050919050565b600073ffffffffffffffffffffffffffffffffffffffff82169050919050565b6000819050919050565b60005b83811015611864578082015181840152602081019050611849565b83811115611873576000848401525b50505050565b6000600282049050600182168061189157607f821691505b602082108114156118a5576118a4611957565b5b50919050565b60006118be6118b983611997565b6117e0565b9050919050565b60006118d86118d383611997565b611800565b9050919050565b60006118ea8261183c565b91507fffffffffffffffffffffffffffffffffffffffffffffffffffffffffffffffff82141561191d5761191c611928565b5b600182019050919050565b7f4e487b7100000000000000000000000000000000000000000000000000000000600052601160045260246000fd5b7f4e487b7100000000000000000000000000000000000000000000000000000000600052602260045260246000fd5b6000601f19601f8301169050919050565b60008160001c9050919050565b7f50617961626c65206973206e6f742076616c6964210000000000000000000000600082015250565b7f4f776e61626c653a206e6577206f776e657220697320746865207a65726f206160008201527f6464726573730000000000000000000000000000000000000000000000000000602082015250565b7f4f7264657220494420646f6573206e6f742062656c6f6e6720746f2075736572600082015250565b7f437573746f6d65722068617320616c7265616479207265636569766564210000600082015250565b7f4f776e61626c653a2063616c6c6572206973206e6f7420746865206f776e6572600082015250565b7f5265656e7472616e637947756172643a207265656e7472616e742063616c6c00600082015250565b611ac98161180a565b8114611ad457600080fd5b50565b611ae08161183c565b8114611aeb57600080fd5b5056fea26469706673582212200949ff4eb490d90fc129b4db4189d9c13043995b242c750e0d17c63cfc7a303364736f6c63430008040033",
  "devdoc": {
    "kind": "dev",
    "methods": {
      "owner()": {
        "details": "Returns the address of the current owner."
      },
      "renounceOwnership()": {
        "details": "Leaves the contract without owner. It will not be possible to call `onlyOwner` functions anymore. Can only be called by the current owner. NOTE: Renouncing ownership will leave the contract without an owner, thereby removing any functionality that is only available to the owner."
      },
      "transferOwnership(address)": {
        "details": "Transfers ownership of the contract to a new account (`newOwner`). Can only be called by the current owner."
      }
    },
    "version": 1
  },
  "userdoc": {
    "kind": "user",
    "methods": {},
    "version": 1
  },
  "storageLayout": {
    "storage": [
      {
        "astId": 7,
        "contract": "contracts/QuboMerchant.sol:QuboMerchant",
        "label": "_owner",
        "offset": 0,
        "slot": "0",
        "type": "t_address"
      },
      {
        "astId": 115,
        "contract": "contracts/QuboMerchant.sol:QuboMerchant",
        "label": "_status",
        "offset": 0,
        "slot": "1",
        "type": "t_uint256"
      },
      {
        "astId": 869,
        "contract": "contracts/QuboMerchant.sol:QuboMerchant",
        "label": "_CELO",
        "offset": 0,
        "slot": "2",
        "type": "t_address"
      },
      {
        "astId": 871,
        "contract": "contracts/QuboMerchant.sol:QuboMerchant",
        "label": "_merchantAddress",
        "offset": 0,
        "slot": "3",
        "type": "t_address"
      },
      {
        "astId": 874,
        "contract": "contracts/QuboMerchant.sol:QuboMerchant",
        "label": "_customerReceived",
        "offset": 20,
        "slot": "3",
        "type": "t_bool"
      },
      {
        "astId": 877,
        "contract": "contracts/QuboMerchant.sol:QuboMerchant",
        "label": "_merchantSent",
        "offset": 21,
        "slot": "3",
        "type": "t_bool"
      },
      {
        "astId": 879,
        "contract": "contracts/QuboMerchant.sol:QuboMerchant",
        "label": "_merchantName",
        "offset": 0,
        "slot": "4",
        "type": "t_string_storage"
      },
      {
        "astId": 882,
        "contract": "contracts/QuboMerchant.sol:QuboMerchant",
        "label": "orderCount",
        "offset": 0,
        "slot": "5",
        "type": "t_uint256"
      },
      {
        "astId": 922,
        "contract": "contracts/QuboMerchant.sol:QuboMerchant",
        "label": "orderList",
        "offset": 0,
        "slot": "6",
        "type": "t_mapping(t_uint256,t_struct(OrderDetails)917_storage)"
      }
    ],
    "types": {
      "t_address": {
        "encoding": "inplace",
        "label": "address",
        "numberOfBytes": "20"
      },
      "t_bool": {
        "encoding": "inplace",
        "label": "bool",
        "numberOfBytes": "1"
      },
      "t_mapping(t_uint256,t_struct(OrderDetails)917_storage)": {
        "encoding": "mapping",
        "key": "t_uint256",
        "label": "mapping(uint256 => struct QuboMerchant.OrderDetails)",
        "numberOfBytes": "32",
        "value": "t_struct(OrderDetails)917_storage"
      },
      "t_string_storage": {
        "encoding": "bytes",
        "label": "string",
        "numberOfBytes": "32"
      },
      "t_struct(OrderDetails)917_storage": {
        "encoding": "inplace",
        "label": "struct QuboMerchant.OrderDetails",
        "members": [
          {
            "astId": 904,
            "contract": "contracts/QuboMerchant.sol:QuboMerchant",
            "label": "orderID",
            "offset": 0,
            "slot": "0",
            "type": "t_uint256"
          },
          {
            "astId": 906,
            "contract": "contracts/QuboMerchant.sol:QuboMerchant",
            "label": "productID",
            "offset": 0,
            "slot": "1",
            "type": "t_uint256"
          },
          {
            "astId": 908,
            "contract": "contracts/QuboMerchant.sol:QuboMerchant",
            "label": "customerAddress",
            "offset": 0,
            "slot": "2",
            "type": "t_address"
          },
          {
            "astId": 910,
            "contract": "contracts/QuboMerchant.sol:QuboMerchant",
            "label": "merchantAddress",
            "offset": 0,
            "slot": "3",
            "type": "t_address"
          },
          {
            "astId": 912,
            "contract": "contracts/QuboMerchant.sol:QuboMerchant",
            "label": "orderAmount",
            "offset": 0,
            "slot": "4",
            "type": "t_uint256"
          },
          {
            "astId": 914,
            "contract": "contracts/QuboMerchant.sol:QuboMerchant",
            "label": "expiryDate",
            "offset": 0,
            "slot": "5",
            "type": "t_uint256"
          },
          {
            "astId": 916,
            "contract": "contracts/QuboMerchant.sol:QuboMerchant",
            "label": "orderStatus",
            "offset": 0,
            "slot": "6",
            "type": "t_string_storage"
          }
        ],
        "numberOfBytes": "224"
      },
      "t_uint256": {
        "encoding": "inplace",
        "label": "uint256",
        "numberOfBytes": "32"
      }
    }
  }
}