{
  "address": "0xA606a40F3dB79f06A30E2260f7580cCC0254ce31",
  "abi": [
    {
      "anonymous": false,
      "inputs": [
        {
          "indexed": false,
          "internalType": "uint256",
          "name": "number",
          "type": "uint256"
        },
        {
          "indexed": false,
          "internalType": "address",
          "name": "sender",
          "type": "address"
        }
      ],
      "name": "newNumber",
      "type": "event"
    },
    {
      "inputs": [],
      "name": "balanceOf",
      "outputs": [
        {
          "internalType": "uint256",
          "name": "balance",
          "type": "uint256"
        }
      ],
      "stateMutability": "view",
      "type": "function"
    },
    {
      "inputs": [
        {
          "internalType": "uint256",
          "name": "num",
          "type": "uint256"
        }
      ],
      "name": "purchase",
      "outputs": [
        {
          "internalType": "bool",
          "name": "",
          "type": "bool"
        }
      ],
      "stateMutability": "payable",
      "type": "function"
    },
    {
      "inputs": [],
      "name": "retrieve",
      "outputs": [
        {
          "internalType": "uint256",
          "name": "",
          "type": "uint256"
        }
      ],
      "stateMutability": "view",
      "type": "function"
    },
    {
      "inputs": [
        {
          "internalType": "uint256",
          "name": "num",
          "type": "uint256"
        }
      ],
      "name": "store",
      "outputs": [],
      "stateMutability": "nonpayable",
      "type": "function"
    }
  ],
  "transactionHash": "0xc2b7e7c6a21ebc0de8cbc86eb4c2f63de4245aef4fe325f4dc1bf0724312d12a",
  "args": [],
  "numDeployments": 8,
  "solcInputHash": "ee9bd8d4661cd18aa182448507be4d6b",
  "bytecode": "0x6080604052600160005534801561001557600080fd5b506102b6806100256000396000f3fe60806040526004361061003f5760003560e01c80632e64cec1146100445780636057361d1461006f578063722713f714610098578063efef39a1146100c3575b600080fd5b34801561005057600080fd5b506100596100f3565b60405161006691906101dd565b60405180910390f35b34801561007b57600080fd5b506100966004803603810190610091919061016c565b6100fc565b005b3480156100a457600080fd5b506100ad61013f565b6040516100ba91906101dd565b60405180910390f35b6100dd60048036038101906100d8919061016c565b610147565b6040516100ea91906101c2565b60405180910390f35b60008054905090565b806000819055507fec82311f97b04658298386090ef20f797cdda0d5c70aecd631063241c68facf881336040516101349291906101f8565b60405180910390a150565b600047905090565b6000803390506001915050919050565b60008135905061016681610269565b92915050565b60006020828403121561017e57600080fd5b600061018c84828501610157565b91505092915050565b61019e81610221565b82525050565b6101ad81610233565b82525050565b6101bc8161025f565b82525050565b60006020820190506101d760008301846101a4565b92915050565b60006020820190506101f260008301846101b3565b92915050565b600060408201905061020d60008301856101b3565b61021a6020830184610195565b9392505050565b600061022c8261023f565b9050919050565b60008115159050919050565b600073ffffffffffffffffffffffffffffffffffffffff82169050919050565b6000819050919050565b6102728161025f565b811461027d57600080fd5b5056fea264697066735822122060e9f70b648e53314086f85bacddfe3e98c83a27acd0574b13a2422f649e96ad64736f6c63430008040033",
  "devdoc": {
    "details": "Store & retrieve value in a variable",
    "kind": "dev",
    "methods": {
      "retrieve()": {
        "details": "Return value ",
        "returns": {
          "_0": "value of 'number'"
        }
      },
      "store(uint256)": {
        "details": "Store value in variable",
        "params": {
          "num": "value to store"
        }
      }
    },
    "title": "Storage",
    "version": 1
  },
  "userdoc": {
    "kind": "user",
    "methods": {},
    "version": 1
  },
  "storageLayout": {
    "storage": [
      {
        "astId": 725,
        "contract": "contracts/Storage.sol:Storage",
        "label": "number",
        "offset": 0,
        "slot": "0",
        "type": "t_uint256"
      }
    ],
    "types": {
      "t_uint256": {
        "encoding": "inplace",
        "label": "uint256",
        "numberOfBytes": "32"
      }
    }
  }
}